:020000040800F2
:1000000000900020E12300086D0700086F0700083A
:1000100000000000000000000000000000000000E0
:100020000000000000000000000000007107000850
:1000300000000000000000007307000875070008BA
:100040003124000800000000312400083124000899
:10005000312400083124000831240008312400082C
:100060000000000031240008312400083124000879
:100070003124000831240008312400080000000069
:1000800031240008312400083124000831240008FC
:1000900031240008312400083124000831240008EC
:1000A00031240008312400083124000831240008DC
:0800B00031240008312400088E
:1000B800002243088B4274D303098B425FD3030A9F
:1000C8008B4244D3030B8B4228D3030C8B420DD3B2
:1000D800FF22090212BA030C8B4202D31212090240
:1000E80065D0030B8B4219D300E0090AC30B8B427E
:1000F80001D3CB03C01A5241830B8B4201D38B032C
:10010800C01A5241430B8B4201D34B03C01A5241D0
:10011800030B8B4201D30B03C01A5241C30A8B4213
:1001280001D3CB02C01A5241830A8B4201D38B02FE
:10013800C01A5241430A8B4201D34B02C01A5241A2
:10014800030A8B4201D30B02C01A5241CDD2C30914
:100158008B4201D3CB01C01A524183098B4201D390
:100168008B01C01A524143098B4201D34B01C01A7B
:10017800524103098B4201D30B01C01A5241C308F3
:100188008B4201D3CB00C01A524183088B4201D362
:100198008B00C01A524143088B4201D34B00C01A4E
:1001A8005241411A00D20146524110467047FFE7BA
:1001B80001B5002000F0F0F802BDC0460029F7D0D4
:1001C80076E7704703460B437FD4002243088B42EF
:1001D80074D303098B425FD3030A8B4244D3030BC6
:1001E8008B4228D3030C8B420DD3FF22090212BA8B
:1001F800030C8B4202D31212090265D0030B8B4207
:1002080019D300E0090AC30B8B4201D3CB03C01AF0
:100218005241830B8B4201D38B03C01A5241430BCB
:100228008B4201D34B03C01A5241030B8B4201D3BB
:100238000B03C01A5241C30A8B4201D3CB02C01A26
:100248005241830A8B4201D38B02C01A5241430A9E
:100258008B4201D34B02C01A5241030A8B4201D38D
:100268000B02C01A5241CDD2C3098B4201D3CB0134
:10027800C01A524183098B4201D38B01C01A5241E3
:1002880043098B4201D34B01C01A524103098B42E7
:1002980001D30B01C01A5241C3088B4201D3CB00D2
:1002A800C01A524183088B4201D38B00C01A5241B5
:1002B80043088B4201D34B00C01A5241411A00D265
:1002C80001465241104670475DE0CA0F00D04942CE
:1002D800031000D34042534000229C4603098B423E
:1002E8002DD3030A8B4212D3FC22890112BA030AC6
:1002F8008B420CD3890192118B4208D38901921148
:100308008B4204D389013AD0921100E08909C309CC
:100318008B4201D3CB01C01A524183098B4201D3CE
:100328008B01C01A524143098B4201D34B01C01AB9
:10033800524103098B4201D30B01C01A5241C30831
:100348008B4201D3CB00C01A524183088B4201D3A0
:100358008B00C01A5241D9D243088B4201D34B00BB
:10036800C01A5241411A00D20146634652415B10FD
:10037800104601D34042002B00D5494270476346DE
:100388005B1000D3404201B5002000F005F802BD23
:100398000029F8D016E770477047C0460448054B57
:1003A80010B5834203D0044B002B00D0984710BDF2
:1003B8000C0000200C00002000000000064807493F
:1003C800091A8B10C90FC91810B5491003D0044B6E
:1003D800002B00D0984710BD0C0000200C00002016
:1003E8000000000010B5074C2378002B09D1FFF757
:1003F800D5FF054B002B02D0044800E000BF0123C5
:10040800237010BD0C000020000000008C240008A0
:10041800054B10B5002B03D00449054800E000BF88
:10042800FFF7CCFF10BDC046000000001000002000
:100438008C240008F0B58BB005AC142200212000F4
:1004480001F0F3FF194B596B202211435963596B83
:100458000A400192019A596B042211435963596B5E
:100468000A400292029A596B022211435963596B4E
:100478000A400392039A5A6B01252A435A635B6B1D
:100488002B400493049B8027BF01094E00223900AA
:10049800300001F0A1FB0597069500230793089308
:1004A8002100300001F0DEFA0BB0F0BD0010024070
:1004B8000004005072B6FEE700B599B00C22002186
:1004C80015A801F0B2FF1C2200210EA801F0ADFF13
:1004D8003422002101A801F0A8FF2748274B036018
:1004E800002343608360264AC260036143618361DD
:1004F80000F0F2FB002836D115A9002315934B60B4
:100508008B601D4800F0BCFD00282ED10EA9602389
:100518000E9300234B608B60CB600B614B618B614A
:100528001548002200F07AFC002820D101A90023F8
:1005380001934B608B60CB600B61802292014A6112
:100548008B61CB610B62802292044A628B62CB6220
:100558000B63094800F0D0FD00280AD1064800F0D6
:1005680067F919B000BDFFF7A5FFFFF7A3FFFFF775
:10057800A1FFFFF79FFFC04610010020002C01409B
:10058800FFFF000000B589B00C22002105A801F08A
:100598004CFF1022002101A801F047FF1548164B17
:1005A8000360002343608360144AC260036183616F
:1005B80000F0C2FB002817D105A9002305938B6022
:1005C8000C4800F05DFD002810D101A9002301931B
:1005D80001224A608B60CB600648033200F0EAFCD7
:1005E800002805D109B000BDFFF764FFFFF762FFDF
:1005F800FFF760FFC400002000040040FFFF000078
:1006080010B51748174B0360E1235B0243600023D2
:100618008360C36003610C2242618361C36103622A
:100628004362836201F008FE002811D10C480021C2
:1006380001F082FE00280DD10948002101F0A2FE38
:10064800002809D1064801F057FE002806D110BD40
:10065800FFF730FFFFF72EFFFFF72CFFFFF72AFF0A
:10066800300000200038014010B592B005AC3422AB
:100678000021200001F0D9FE1022002101A801F07C
:10068800D4FE8020800001F0B5FA01230593802371
:100698005B02069302230C9301330D9300230E9300
:1006A80008330F9380239B02109380239B0511939B
:1006B800200000F083FD00280ED101A80723019334
:1006C800053B436000238360C360022101F022F8E8
:1006D800002803D112B010BDFFF7ECFEFFF7EAFEC9
:1006E80010B501F031FBFFF7BFFFFFF7A3FEFFF7DF
:1006F800E3FEFFF747FFFFF783FFFA21074C890066
:10070800200000F00FF8200000F010F801F03CFB8A
:100718000100024B180000F013F8F7E7280000204A
:100728000180704710B5FFF7FBFF10BD10B58021A1
:1007380000228901014801F04FFA10BD0004005061
:1007480070B504000D004368CB1A0288934200D2AA
:1007580070BD80218901024801F044FA6560F7E71D
:1007680000040050FEE7FEE77047704710B501F03F
:10077800FFFA10BD82B00A4B196C012211431964AB
:10078800196C0A400092009ADA6B802149050A43E5
:10079800DA63DB6B0B400193019B02B07047C046E4
:1007A8000010024082B00268074B9A4201D002B0A2
:1007B8007047064B1A6C802109010A431A641B6CA6
:1007C8000B400193019BF2E7002C0140001002400E
:1007D80010B588B004001422002103A801F025FEFA
:1007E8002268104B9A4201D008B010BD0E4BDA6B4C
:1007F80002200243DA63DA6B02400192019A596BD4
:100808000422114359635B6B1A400292029B03A9AD
:100818008023039348607F3B0B61044801F022F971
:10082800E2E7C04600040040001002400008005003
:1008380010B586B004001422002101A801F0F5FDCE
:1008480022680D4B9A4201D006B010BD0B4A516B7D
:10085800012319435163526B13400093009B01A974
:1008680080235B000193FE3B4B600B61A020C00519
:1008780001F0F8F8E8E7C046002C014000100240FB
:1008880010B58EB004001422002109A801F0CDFD96
:100898001C22002102A801F0C8FD2268174B9A42C9
:1008A80001D00EB010BD0123029302A801F012F886
:1008B80000281FD1124B1A6C8021C9010A431A64FF
:1008C8001A6C0A400092009A596B0422114359632A
:1008D8005B6B1A400192019B09A9302309932E3BB7
:1008E8004B6000238B60CB6001330B61054801F03E
:1008F800B9F8D6E7FFF7DEFDDCE7C046003801406F
:10090800001002400008005030B5056A036A012251
:100918009343036242688369194C23400C681C4363
:1009280002239D438B682B43164DA84208D0164DD1
:10093800A84205D0154DA84202D0154DA84206D1AF
:100948000825AB431D00CB682B430425AB430D4D55
:10095800A84208D00C4DA84205D00C4DA84202D0A0
:100968000B4DA84205D10B4D2A404D6915438A69A4
:100978002A43426084614A684263036230BDC046CC
:100988008CFFFEFF002C0140004001400044014064
:1009980000480140FFFCFFFF30B5046A036A184AAB
:1009A800134003624268C369164D2B400D681D430E
:1009B800154B1C408B681B022343144CA04209D0E2
:1009C800134CA0420DD0134CA0420AD0124CA042A6
:1009D8000FD106E0114C1C40CB681B022343104C7E
:1009E8002340104C22404C69240114438A691201A7
:1009F80022434260C5614A68C263036230BDC04693
:100A0800FFFEFFFF8CFFFEFFFFFDFFFF002C0140F4
:100A1800004001400044014000480140FFF7FFFF4B
:100A2800FFFBFFFFFFCFFFFF30B5046A036A134ADD
:100A3800134003624368C269114D2A400D682D02B4
:100A48001543104A14408A68120322430E4CA042F0
:100A580008D00E4CA04205D00D4CA04202D00D4C3F
:100A6800A04204D10C4C1C404B699B0123434360BA
:100A7800C5614B680364026230BDC046FFEFFFFFEB
:100A8800FF8CFFFEFFDFFFFF002C0140004001400C
:100A98000044014000480140FFBFFFFF30B5046A31
:100AA800036A124A134003624368426D104D2A409C
:100AB8000D6815430F4A14408A68120422430E4CED
:100AC800A04208D00D4CA04205D00D4CA04202D047
:100AD8000C4CA04204D1054C1C404B691B0223431B
:100AE800436045654B688365026230BDFFFFFEFFCA
:100AF8008FFFFEFFFFFFFDFF002C0140004001407B
:100B0800004401400048014030B5046A036A134AB2
:100B1800134003624368426D114D2A400D682D024F
:100B28001543104A14408A68120522430E4CA0420D
:100B380008D00E4CA04205D00D4CA04202D00D4C5E
:100B4800A04204D10C4C1C404B699B0223434360D8
:100B580045654B68C365026230BDC046FFFFEFFFC5
:100B6800FF8FFFFEFFFFDFFF002C01400040014028
:100B78000044014000480140FFFFFBFF70B5046AD4
:100B8800056A1026B54305628569084E354012028C
:100B98002A43074D2A401B071B0C1343A0229443EA
:100BA80009010A4022438361026270BDFFFCFFFF16
:100BB800FF0FFFFF70B5056A046A0C4E34400462EB
:100BC800C4690536FF36B4431443F02294431A012E
:100BD800FF2313402343064A15400902A0221201AD
:100BE80011402943C361016270BDC046FFFEFFFF8B
:100BF800FFF5FFFF70B5046A056A0B4E35400562C4
:100C0800C5690A4E354012022A43094D2A401B077E
:100C18001B0C1343074A14400903A0221202114077
:100C28002143C361016270BDFFEFFFFFFFFCFFFFBF
:100C3800FF0FFFFFFF5FFFFF0368204A904202D0CB
:100C48001F4A904203D1702293434A6813431B4AB8
:100C580090420ED01A4A90420BD01A4A904208D0BD
:100C6800194A904205D0194A904202D0184A904237
:100C780003D1184A1A40CB681343802293434A6928
:100C8800134303608B68C3620B6883620B4B984203
:100C980008D00D4B984205D00C4B984202D00C4B13
:100CA800984201D10B69036301234361026913422E
:100CB80003D003690122934303617047002C01406C
:100CC8000004004000200040004001400044014072
:100CD80000480140FFFCFFFF70B5041E2AD03D23E9
:100CE800C35C002B20D03D2502236355210001C998
:100CF800FFF7A2FF01234822A3540A3AA354013262
:100D0800A3540132A3540132A3540132A354013233
:100D1800A3540132A3540132A3540132A354013223
:100D2800A3546355002070BD3C330022C254FFF722
:100D380039FDD8E70120F6E770B5041E2AD03D2317
:100D4800C35C002B20D03D2502236355210001C937
:100D5800FFF772FF01234822A3540A3AA354013231
:100D6800A3540132A3540132A3540132A3540132D3
:100D7800A3540132A3540132A3540132A3540132C3
:100D8800A3546355002070BD3C330022C254FFF7C2
:100D98001FFDD8E70120F6E770B5026A036A102440
:100DA800A343036244688369164D2B400D682D02E6
:100DB8001D4320239A438B681B011343124A904218
:100DC80009D0124A90420ED0114A90420BD0114AD3
:100DD800904210D107E0802293431E00CB681B018C
:100DE8003343403A93430C4A14404A6992002243E1
:100DF8008C69A4001443446085614A688263036275
:100E080070BDC046FF8CFFFE002C01400040014031
:100E18000044014000480140FFF3FFFF70B50400A3
:100E28000D003C23C35C012B00D192E03C2301213F
:100E3800C154142A00D987E09200474B9B589F461B
:100E480000682900FFF760FD2268936908210B43B9
:100E580093612268936904398B439361226893698B
:100E680029690B43936100206FE000682900FFF7B0
:100E780093FF2268916980231B010B4393612268C9
:100E8800936936490B40936121688B692A6912027C
:100E980013438B61002058E000682900FFF77CFDB0
:100EA8002268D36908210B43D3612268D3690439C6
:100EB8008B43D3612268D36929690B43D36100202E
:100EC80043E000682900FFF7AFFD2268D16980235D
:100ED8001B010B43D3612268D36920490B40D361BE
:100EE8002168CB692A6912021343CB6100202CE0E8
:100EF80000682900FFF7D2FD2268536D08210B43D3
:100F080053652268536D04398B4353652268536DCA
:100F180029690B435365002017E000682900FFF793
:100F2800F3FD2268516D80231B010B435365226832
:100F3800536D0A490B40536521684B6D2A691202AB
:100F480013434B65002000E001203C230022E254BB
:100F580070BD0220FCE7C046A4240008FFFBFFFF89
:100F680070B51600046A026A0125AA430262826902
:100F78000D4DA84208D00D4DA84205D00C4DA842F1
:100F880002D001252A4302E00325AA433243F02573
:100F9800AA431D01FF232B4013430A2294430A400E
:100FA80022438361026270BD002C014000040040AE
:100FB8000040014070B504000D003C23C35C012BC8
:100FC80059D03C230121C154002A0AD0042A1AD03E
:100FD800082A2BD00C2A3BD001203C230022E254C3
:100FE80070BD29686A68EB680068FFF7B9FF226876
:100FF80093690C218B43936122689369A9680B4319
:1010080093610020E9E729686A68EB680068FFF7E0
:10101800B5FD2268936919490B40936121688B6972
:10102800AA68120213438B610020D6E729686A6810
:10103800EB680068FFF7BEFD2268D3690C218B437B
:10104800D3612268D369A9680B43D3610020C4E740
:1010580029686A68EB680068FFF7CCFD2268D369E5
:1010680006490B40D3612168CB69AA681202134371
:10107800CB610020B1E70220B2E7C046FFF3FFFFD3
:1010880030B53C23C35C012B2CD03C230122C25435
:1010980001330132C254026853689568124CA24267
:1010A8001BD07024A3430C682343536003680E4A83
:1010B800934205D00D4A934202D00D4A934204D17F
:1010C800802295438A682A439A603D230122C254AC
:1010D800013B0022C254002030BD064C23404C681E
:1010E8002343DEE70220F7E7002C0140000400401C
:1010F80000400140FFFF0FFF10B53C23C35C012BEC
:1011080040D03C230122C254CB681F4A13408A684E
:1011180013431E4A13404A6813431D4A13400A6882
:1011280013431C4A13400A6913431B4A13404A6974
:1011380013431A4A13400A6B1343194A13408A6926
:1011480012041343174A1340CA6913430268164C22
:10115800A24205D053643C230022C254002010BD93
:10116800124C23408C6A24052343114C23400C6AFB
:101178002343104C23404C6A23430F4C2340C96A35
:101188000B43E7E70220EAE7FFFCFFFFFFFBFFFF57
:10119800FFF7FFFFFFEFFFFFFFDFFFFFFFBFFFFFCF
:1011A800FFFFF0FFFFFFFFEF002C0140FFFF0FFFE5
:1011B800FFFFFFFEFFFFFFFDFFFFFFDF70B582B0FF
:1011C800041E00D129E20368DB0739D5C14A9168BA
:1011D80038230B40D16803220A40102B26D0082B55
:1011E80026D063688022520293427FD0A022D20286
:1011F800934200D181E0B74B1A68B7490A401A6098
:101208001A68B6490A401A606368002B00D180E06A
:1012180000F0BAFD0500AF4B1B689B0310D400F02B
:10122800B3FD401B6428F6D90320F7E1032AD6D181
:10123800A84B1B689B0303D56368002B00D1EFE123
:1012480023689B0731D5A34A916838230B40D1689E
:1012580003220A40102B6AD0002B6BD19D4A1268DA
:10126800520503D5E268002A00D1DBE199484268BB
:101278009B490A40616909020A434260002B0DD16B
:10128800036898490B4021690B4303600368DB0A34
:1012980007221A40944BD340944A1360944B186821
:1012A80000F026FD002800D0BEE123681B0700D40B
:1012B80081E0884B9A6838231340182B73D0A369B0
:1012C800002B00D1B4E0834A136E01210B4313664F
:1012D80000F05AFD05007F4B1B6E9B076BD400F096
:1012E80053FD401B0228F6D9032097E1794A11687B
:1012F80080235B020B43136086E7764B19688022D4
:10130800D2020A431A601968802252020A431A60FC
:101318007AE700F039FD05006E4B1B689B038FD5FB
:1013280000F032FD401B6428F6D9032076E1022A3A
:1013380092D193E7E368002B22D0664A1368694983
:101348000B4021690B431360116880235B000B433A
:10135800136000F019FD05005E4B1B685B0506D4A1
:1013680000F012FD401B0228F6D9032056E1594926
:101378004B685B4A13406269120213434B6094E75F
:10138800544A13685B490B40136000F0FDFC0500EC
:10139800504B1B685B0588D500F0F6FC401B022803
:1013A800F6D903203AE14B4B1B6E9B0703D5A36983
:1013B800002B00D13AE123685B0700D4A2E0454B3B
:1013C8009A6838231340202B45D0424BDB6BDB0057
:1013D8004AD4404BDA6B802149050A43DA63DB6B58
:1013E8000B400193019B0125434B1B68DB053DD551
:1013F800A368012B4ED0052B52D0364BDA6D012154
:101408008A43DA65DA6D03318A43DA65A368002B0B
:1014180050D000F0B9FC06002E4BDB6D9B076FD453
:1014280000F0B2FC801B354B9842F5D90320F5E05B
:10143800284A136E01218B43136600F0A5FC0500B2
:10144800244B1B6E9B07B6D500F09EFC401B022860
:10145800F6D90320E2E01F4BDB6D9B0752D5A3684A
:10146800002B4FD10120D9E00025BDE7224A1168A1
:1014780080235B000B43136000F086FC06001E4BC4
:101488001B68DB05B4D400F07FFC801B0228F6D96A
:101498000320C3E00F4AD36D01210B43D365B5E7A1
:1014A8000C4BDA6D04210A43DA65DA6D03390A4315
:1014B800DA65ABE700F068FC0600064BDB6D9B07BE
:1014C8001ED500F061FC801B0C4B9842F5D9032017
:1014D800A4E0C04600100240FFFFFEFFFFFFFBFF35
:1014E800FF80FFFFFFC7FFFF0024F4000800002073
:1014F80004000020FFFEFFFF00700040881300007A
:10150800012D1ED0E369002B00D191E04F4A91686C
:1015180038220A40102A5ED0022B18D04B4A136892
:101528004B490B40136000F02FFC0400474B1B682D
:101538009B0149D500F028FC001B0228F6D903209E
:101548006CE0424AD36B43490B40D363DAE73F4A26
:1015580013683F490B40136000F016FC05003B4B35
:101568001B689B0106D500F00FFC401B0228F6D92A
:10157800032053E0354AD36837491940236A606A23
:101588000343A06A00020343E06A0343206B03435A
:101598000B43D360116880235B040B431360D1684D
:1015A80080235B050B43D36000F0EEFB0400274B60
:1015B8001B689B0106D400F0E7FB001B0228F6D944
:1015C80003202BE0002029E0204AD36823490B4060
:1015D800D360002022E0012B2CD01C4BDA680323B7
:1015E8001340216A8B4227D170231340616A8B42D2
:1015F80024D1FE21C9011140A36A1B0299421FD1BF
:10160800F8239B031340E16A8B421BD1520F520708
:10161800236B9A4218D1002000E0012002B070BD6F
:101628000120FBE70120F9E70120F7E70120F5E7B2
:101638000020F3E70120F1E70120EFE70120EDE7C3
:101648000120EBE70120E9E70120E7E7001002406D
:10165800FFFFFFFEFFFFFFEF8C80C11FFCFFFEEFC7
:1016680010B52A4B9B6838221A4207D1274B1A68B3
:10167800D20A072313402648D84010BD234B9A6846
:1016880038231340082B3BD0204B9A68382313404B
:10169800102B0DD01D4B9A6838231340202B31D0C6
:1016A8001A4B9A6838231340182B26D00020E4E7F9
:1016B800164AD1680D3B0B40D26812090721114028
:1016C8000131032B0FD01248FEF7F2FC0F4BDA68FA
:1016D800120A7F23134058430C4BD968490F013134
:1016E800FEF7E6FCC9E70A48FEF7E2FC074BDA68B2
:1016F800120A7F2313405843EEE7FA20C001BCE7E3
:101708000348BAE780200002B7E7C046001002404D
:101718000024F40070B504000D00002800D1AAE0F0
:10172800574B1A68072313408B4221D323689A0723
:101738000ED55B0705D5534A9168E023DB010B43BF
:101748009360504A936850490B40A1680B439360DB
:101758002368DB0754D56368012B20D0022B3BD0CC
:10176800002B3FD1474A126852051CD401206AE079
:10177800434A136807218B432B43136000F004FB93
:1017880006003F4B1A6807231340AB42CED000F047
:10179800FBFA801B3D4A9042F3D9032053E0394AB3
:1017A8001268920369D537498A6807208243134330
:1017B8008B6000F0E9FA0600324B9B6838221A4029
:1017C8006368DB009A421BD000F0DEFA801B2F4BC7
:1017D8009842F1D9032036E02A4A12689201E2D4ED
:1017E800012030E0032B05D0264AD26D9207DAD4C7
:1017F800012028E0234A126E9207D4D4012022E067
:101808001F4B1A6807231340AB421DD823685B0798
:1018180006D51C4A93681E490B40E1680B43936048
:10182800FFF71EFF174B9A68120A0F231340194A35
:101838009B009A581F231340D840174B1860174B2A
:10184800186800F055FA70BD0D4A136807218B43DC
:101858002B43136000F098FA0600094B1A68072317
:101868001340AB42D2D000F08FFA801B074B98424E
:10187800F3D90320E7E70120E5E70120E3E7C046C5
:101888000020024000100240FFF0FFFF8813000014
:10189800FF8FFFFF402500080800002004000020FB
:1018A800014B18687047C0460800002010B5FFF7C4
:1018B800F7FF064B9A68120B07231340044A9B0054
:1018C8009A581F231340D84010BDC046001002404C
:1018D80020250008F0B583B0040003689B0362D597
:1018E800584BDB6BDB001ED4564BDA6B8021490565
:1018F8000A43DA63DB6B0B400193019B0126524AD2
:10190800116880235B000B43136000F03DFA05006B
:101918004D4B1B68DB0508D400F036FA401B022843
:10192800F6D9032502E00026E9E70025002D23D19A
:10193800444BD96DC02292000B001340114212D0C3
:10194800A2699A420DD03F4AD36D40490B40D06DF1
:10195800802149020143D165D16D3D480140D165DF
:10196800D365DB0710D4002D06D1364AD36D37492D
:101978000B40A1690B43D365012E15D1314AD36BB6
:1019880034490B40D3630FE000F0FEF907002D4BFC
:10199800DB6D9B07E7D400F0F7F9C01B2E4B98428C
:1019A800F5D90325DFE700252368DB0706D5254A97
:1019B800536D03218B4361680B43536523689B0771
:1019C80006D5204A536D0C218B43A1680B43536500
:1019D80023689B0606D51B4A536D20490B40E168D6
:1019E8000B43536523685B040BD5164A536D9B0064
:1019F8009B0861690B43536562698023DB059A4242
:101A080011D023681B050BD50E4A536D14490B40A2
:101A180021690B43536522698023DB019A4209D06F
:101A2800280003B0F0BD074AD16880235B020B434E
:101A3800D360E6E7034AD16880235B020B43D36097
:101A4800EEE7C0460010024000700040FFFCFFFFB8
:101A5800FFFFFEFFFFFFFFEF88130000FFCFFFFF30
:101A6800FF3FFFFFF0B5002359E086685F000324BD
:101A7800BC40A643CC68BC4034438460446894436B
:101A88004E683609012232409A402243426056E0AD
:101A9800DE080836B600375805321A4092000F247F
:101AA8009440A7430C69944022003A43325059E0CD
:101AB800032600E00026A64034003C43424E18327C
:101AC800920094513768EA433E00AE434C68E40202
:101AD80001D53E002E433C4C266067683E00164008
:101AE8004C68A40201D53E002E43374C666084261C
:101AF800A7593E0016404C68A40301D53E002E436A
:101B0800314C8427E6518026A65932404C68E403BC
:101B180001D52A0032432C4D80242A5101330C6808
:101B28002200DA404ED001229A4025001540144286
:101B3800F4D04E6803243440013C012C95D94C68FC
:101B480003222240032A08D0C4685E000322B24060
:101B580094438A68B2402243C2604C680322224000
:101B6800022A95D004685E0003221700B740BC43E0
:101B78004F683A40B240224302604C68C022920249
:101B88001442CBD09A0814001834A4000E4EA7595A
:101B980003241C40E4000F26A640B743A026F60500
:101BA800B04287D0094EB04208D0094EB04207D0A3
:101BB800084EB04200D17BE705267CE701267AE78C
:101BC800022678E7F0BDC046001802400004005025
:101BD80000080050000C0050002A01D081617047B5
:101BE8008162FCE7426913000B401B0491430B43DD
:101BF8008361704710B5104A136810490B400343BE
:101C0800136080239B00984201D0002010BD0C4B2C
:101C18001B685800C01840000A49FEF749FA01300D
:101C2800054B5B695B0503D5002803D00138F7E74E
:101C38000020EBE70320E9E700700040FFF9FFFF11
:101C48000800002040420F0070B5002811DB83080F
:101C5800134DC0339B005C5903221040C000FC3276
:101C680016008640B44389010A40824022435A51F3
:101C780070BD0F230340083B9B0806339B00094AAD
:101C8800944663445C6803221040C000FC3215008F
:101C98008540AC4389010A40824022435A60E7E705
:101CA80000E100E000ED00E0013880235B04984289
:101CB8000FD2094A50600948036A1B021B0AC02157
:101CC80009060B4303620023936007331360002067
:101CD80070470120FCE7C04610E000E000ED00E09E
:101CE80010B5FFF7B1FF10BD10B5FFF7DDFF10BD50
:101CF80010B50400114B1978002901D1012010BD3D
:101D0800FA208000FEF7D4F901000D4B1868FEF7A1
:101D1800CFF9FFF7E9FF00280DD1032C01D90120E5
:101D2800EDE70130002221004042FFF7D9FF054BC3
:101D38001C600020E3E70120E1E7C0460000002026
:101D4800080000200400002010B5084A116880230C
:101D58005B000B4313600320FFF7CAFF041E02D089
:101D68000124200010BDFEF705FDFAE7002002401F
:101D7800034B1B78034A11685B1813607047C04611
:101D8800000000205C010020014B18687047C04625
:101D98005C01002030B5EFF31084012282F3108833
:101DA80001680B68124D2B400B6084F31088EFF329
:101DB800108182F31088026893680E4C2340936068
:101DC80081F31088C36E012B06D08C232022C250C9
:101DD8000023C366436730BDEFF3108183F3108897
:101DE800026813681024A343136081F31088ECE79A
:101DF800DFFEFFFFFEFFFFEF10B5040083680269F6
:101E0800134342691343C269134301680A686A4865
:101E1800024013430B602268536868490B40E1682D
:101E28000B435360A369226A1A4321688B6864488C
:101E3800034013438B602268D36A0F218B43616A86
:101E48000B43D36223685F4A934218D05E4A934299
:101E580026D05E4A934244D05D4A934231D0102343
:101E6800E0698022120290423DD0042B00D18FE01D
:101E78006DD8002B72D0022B67D1564872E0564BB2
:101E88005A6D03231340022B1DD005D8002B1CD0FC
:101E9800012B1CD10333E3E7032B1AD10533DFE70A
:101EA8004D4B5A6D0C231340082B14D005D8002B2A
:101EB80013D0042BD4D01023D2E70C2B0FD1043B22
:101EC800CEE70023CCE70223CAE70023C8E71023A4
:101ED800C6E71023C4E70223C2E70023C0E71023A4
:101EE800BEE70023BCE7042B2CD007D8002B09D071
:101EF800022B01D1374809E0012053E0082B05D017
:101F080001204FE0FFF7D2FC002844D0626A334B2F
:101F18005200D15AFEF7CCF8400061684B08C0184F
:101F2800FEF7C6F80200103A2D4B9A4235D882B215
:101F38000F239A434008083B034013432268D360A9
:101F480000202FE0FFF78CFBDEE701202AE0082BBA
:101F580002D18020000205E0012023E0FFF7A6FC63
:101F680000281CD0626A1D4B5200D15AFEF7A0F817
:101F780061684B08C018FEF79BF80200103A184B2E
:101F88009A420ED823680004000CD860002009E0AB
:101F9800FFF766FBE4E7002004E0012002E00020F0
:101FA80000E0012001236A22A352023AA35200232F
:101FB8006367A36710BDC046F369FFCFFFCFFFFF7C
:101FC800FFF4FF1100380140004400400048004081
:101FD800004C00400024F40000100240F8240008DF
:101FE800EFFF0000836A1B0706D5026853682C4977
:101FF8000B40816B0B435360836ADB0706D502688D
:10200800536828490B40C16A0B435360836A9B0796
:1020180006D50268536824490B40016B0B43536093
:10202800836A5B0706D50268536820490B40416BF9
:102038000B435360836ADB0606D5026893681C4924
:102048000B40C16B0B439360836A9B0606D50268FD
:10205800936818490B40016C0B439360836A5B06D5
:102068000BD50268536814490B40416C0B4353600D
:10207800426C80235B039A420AD0836A1B0606D50A
:10208800026853680D490B40C16C0B43536070479D
:10209800026853680A490B40816C0B435360ECE7B4
:1020A800FF7FFFFFFFFFFDFFFFFFFEFFFFFFFBFFBF
:1020B800FFEFFFFFFFDFFFFFFFFFEFFFFFFFF7FF70
:1020C800FFFF9FFFF8B5CE46474680B506000D00D6
:1020D80017009946089B98463368DC692C40641BB6
:1020E80063425C41BC4233D143460133F4D0FFF72D
:1020F8004BFE4B46C01A40452FD84346002B2ED0E6
:10210800326813685B07E7D5802DE5D0402DE3D012
:10211800D3691B0710D4D3691B05DDD580231B01A8
:1021280013623000FFF736FE90232022F2500C3B5A
:102138000022F25403200CE0082414623000FFF758
:1021480029FE9023F4500C3B0022F254012000E0B9
:102158000020C0BCB946B046F8BD0320F9E703200B
:10216800F7E7000030B583B0040090230022C25086
:10217800FFF70AFE050023681B681B0710D42368B5
:102188001B685B072BD420238822A3500432A3505A
:102198000023E3662367083AA354002003B030BD48
:1021A8008021234B00930300002289032000FFF7BE
:1021B80089FF0028E3D0EFF31081012383F310880F
:1021C8002268136880208343136081F31088882372
:1021D8002022E250043B0022E2547D38DEE78021D1
:1021E800134B00932B000022C9032000FFF76AFF5E
:1021F8000028C8D0EFF31080012282F310882168EC
:102208000B680C4D2B400B6080F31088EFF31080A7
:1022180082F3108821688B6893438B6080F3108861
:102228008C231F32E250083B0022E2540320B5E71A
:10223800FFFFFF01DFFEFFFF10B5041E30D088232B
:10224800C358002B22D088232422E2502268136826
:1022580001218B431360A36A002B1DD12000FFF7D7
:10226800CBFD012811D0226853680E490B405360FA
:10227800226893682A218B4393602268136829395E
:102288000B4313602000FFF76DFF10BD843300225D
:10229800C254FEF7F5FAD6E72000FFF7A3FEDDE704
:1022A8000120F2E7FFB7FFFFF8B50400436E002BEB
:1022B80005D101336A228352023A8352F8BD02687B
:1022C80095686D0E07231D409268520F1340084F02
:1022D800F85CC000074EF15CFDF774FF6A23E0521A
:1022E800785DC000715DFDF76DFF6823E052E5E79A
:1022F800182500081025000870B58423C35C012B3D
:1023080015D08424012606558825242343510268C4
:1023180013681168B1431160064A134000224266EF
:1023280001680B60202343510255002070BD022034
:10233800FCE7C046FFFFFFDFF8B504000A0084236E
:10234800C35C012B1BD084250120605588262423DB
:10235800A35123681F68196881431960206883683E
:10236800DB00D908114381602000FFF79DFF236837
:102378001F602023A351002363550020F8BD0220CD
:10238800FCE70000F8B504000B008422825C012AF7
:102398001BD084250120605588262422A25122685A
:1023A80017681168814311602268916808480140E4
:1023B800194391602000FFF777FF23681F602023EF
:1023C800A351002363550020F8BD0220FCE7C04656
:1023D800FFFFFFF1704700000D488546FFF7FAFF41
:1023E8000C480D490D4A002302E0D458C450043368
:1023F800C4188C42F9D30A4A0A4C002301E013603E
:102408000432A242FBD300F019F8FEF769F9FEE79F
:1024180000900020000000200C0000208825000803
:102428000C00002060010020FEE7030082189342A0
:1024380000D1704719700133F9E7000070B5002624
:102448000C4C0D4D641BA410A64209D1002600F0C7
:1024580019F80A4C0A4D641BA410A64205D170BD98
:10246800B300EB5898470136EEE7B300EB589847AE
:102478000136F2E780250008802500088425000839
:1024880080250008F8B5C046F8BC08BC9E467047D1
:0C249800F8B5C046F8BC08BC9E46704772
:1024A400480E0008500F0008500F0008500F000895
:1024B400720E0008500F0008500F0008500F00085B
:1024C400A00E0008500F0008500F0008500F00081D
:1024D400CA0E0008500F0008500F0008500F0008E3
:1024E400F80E0008500F0008500F0008500F0008A5
:1024F400220F0008010002000400060008000A0080
:102504000C001000200040008000000108040204B8
:10251400080101010101010307010000000000009E
:1025240000000000000000000000000001000000A6
:10253400020000000300000004000000000000008E
:102544000000000000000000000000000000000087
:102554000000000000000000000000000100000076
:102564000200000003000000040000000600000058
:0C25740007000000080000000900000043
:042580001904000832
:04258400ED0300085B
:0C25880001000000040000000024F4002A
:04000005080023E1EB
:00000001FF
