:020000040800F2
:1000000000900020652E0008AB0B0008AD0B000827
:1000100000000000000000000000000000000000E0
:10002000000000000000000000000000AF0B00080E
:100030000000000000000000B10B0008B30B000836
:10004000B52E000800000000B52E0008B52E0008EF
:10005000B52E0008B52E0008B52E0008B52E0008F4
:1000600000000000B52E0008B52E0008B52E0008CF
:10007000B52E0008B52E0008B52E000800000000BF
:10008000BD0B0008B52E0008B52E0008B52E0008DF
:10009000B52E0008B52E0008B52E0008B52E0008B4
:1000A000B52E0008B52E0008B52E0008B52E0008A4
:0800B000B52E0008B52E000872
:1000B8000023C25C0133002AFBD1581E70470000A0
:1000C80003B47146490840004900095E49008E445E
:1000D80003BC7047002243088B4274D303098B4248
:1000E8005FD3030A8B4244D3030B8B4228D3030C00
:1000F8008B420DD3FF22090212BA030C8B4202D3A2
:100108001212090265D0030B8B4219D300E0090AC9
:10011800C30B8B4201D3CB03C01A5241830B8B42D2
:1001280001D38B03C01A5241430B8B4201D34B03BB
:10013800C01A5241030B8B4201D30B03C01A524120
:10014800C30A8B4201D3CB02C01A5241830A8B42A5
:1001580001D38B02C01A5241430A8B4201D34B028E
:10016800C01A5241030A8B4201D30B02C01A5241F2
:10017800CDD2C3098B4201D3CB01C01A52418309A6
:100188008B4201D38B01C01A524143098B4201D3E0
:100198004B01C01A524103098B4201D30B01C01A0B
:1001A8005241C3088B4201D3CB00C01A5241830885
:1001B8008B4201D38B00C01A524143088B4201D3B2
:1001C8004B00C01A5241411A00D201465241104612
:1001D8007047FFE701B5002000F0F0F802BDC04607
:1001E8000029F7D076E7704703460B437FD40022F7
:1001F80043088B4274D303098B425FD3030A8B42B3
:1002080044D3030B8B4228D3030C8B420DD3FF221C
:10021800090212BA030C8B4202D31212090265D0EA
:10022800030B8B4219D300E0090AC30B8B4201D39D
:10023800CB03C01A5241830B8B4201D38B03C01AE4
:100248005241430B8B4201D34B03C01A5241030B5B
:100258008B4201D30B03C01A5241C30A8B4201D30C
:10026800CB02C01A5241830A8B4201D38B02C01AB7
:100278005241430A8B4201D34B02C01A5241030A2E
:100288008B4201D30B02C01A5241CDD2C3098B4213
:1002980001D3CB01C01A524183098B4201D38B0190
:1002A800C01A524143098B4201D34B01C01A524133
:1002B80003098B4201D30B01C01A5241C3088B4278
:1002C80001D3CB00C01A524183088B4201D38B0063
:1002D800C01A524143088B4201D34B00C01A524105
:1002E800411A00D201465241104670475DE0CA0FDC
:1002F80000D04942031000D34042534000229C469C
:1003080003098B422DD3030A8B4212D3FC228901A5
:1003180012BA030A8B420CD3890192118B4208D37B
:10032800890192118B4204D389013AD0921100E0DD
:100338008909C3098B4201D3CB01C01A52418309F1
:100348008B4201D38B01C01A524143098B4201D31E
:100358004B01C01A524103098B4201D30B01C01A49
:100368005241C3088B4201D3CB00C01A52418308C3
:100378008B4201D38B00C01A5241D9D243088B4219
:1003880001D34B00C01A5241411A00D201466346BC
:1003980052415B10104601D34042002B00D5494220
:1003A800704763465B1000D3404201B5002000F05F
:1003B80005F802BD0029F8D016E770477047C04617
:1003C800844608006146FFE71FB503F0CFFD00280B
:1003D80001D40021C8421FBD10B503F057FD4042AB
:1003E800013010BD10B503F0C1FD002801DB00206D
:1003F80010BD012010BDC04610B503F0B7FD0028A0
:1004080001DD002010BD012010BDC04610B503F06D
:1004180065FD002801DC002010BD012010BDC0468C
:1004280010B503F05BFD002801DA002010BD0120A3
:1004380010BDC0461C2101231B04984201D3000CA7
:1004480010391B0A984201D3000A08391B0998423F
:1004580001D30009043902A2105C40187047C04655
:100468000403020201010101000000000000000075
:100478000448054B10B5834203D0044B002B00D031
:10048800984710BD5C0000205C00002000000000C0
:1004980006480749091A8B10C90FC91810B5491021
:1004A80003D0044B002B00D0984710BD5C000020FF
:1004B8005C0000200000000010B5074C2378002BDA
:1004C80009D1FFF7D5FF054B002B02D0044800E007
:1004D80000BF0123237010BD5C0000200000000055
:1004E80098480008054B10B5002B03D0044905486F
:1004F80000E000BFFFF7CCFF10BDC04600000000C1
:100508006000002098480008F0B58BB005AC1422B4
:100518000021200002F004FD194B596B20221143E1
:100528005963596B0A400192019A596B042211438D
:100538005963596B0A400292029A596B022211437D
:100548005963596B0A400392039A5A6B01252A434F
:100558005A635B6B2B400493049B8027BF01094EB1
:1005680000223900300001F0CDFF059706950023E1
:10057800079308932100300001F00AFF0BB0F0BD8B
:10058800001002400004005072B6FEE700B589B0C2
:100598000C22002105A802F0C3FC1022002101A8AA
:1005A80002F0BEFC1648174B03603F23436000234C
:1005B8008360154AC2600361836100F0EFFE002882
:1005C80017D105A9002305938B600D4801F0EAF9BE
:1005D800002810D101A90023019301224A608B60F1
:1005E800CB600748033201F017F8002805D109B09D
:1005F80000BDFFF7C9FFFFF7C7FFFFF7C5FFC046FC
:100608005C01002000040040FFFF000010B51748FF
:10061800174B0360E1235B02436000238360C360E0
:1006280003610C2242618361C36103624362836296
:1006380002F020FB002811D10C48002102F09AFB9F
:1006480000280DD10948002102F0BAFB002809D181
:10065800064802F06FFB002806D110BDFFF794FF93
:10066800FFF792FFFFF790FFFFF78EFFC80000200B
:100678000038014000B599B00C22002115A802F0FD
:100688004FFC1C2200210EA802F04AFC3422002153
:1006980001A802F045FC2748274B03603F2343602D
:1006A80000238360254AC26003614361836100F0CF
:1006B80045FE002836D115A9002315934B608B60A1
:1006C8001C4801F06FF900282ED10EA960230E9363
:1006D80000234B608B60CB600B614B618B611548CD
:1006E800002200F0CDFE002820D101A900230193AB
:1006F8004B608B60CB600B61802292014A618B61F9
:10070800CB610B62802292044A628B62CB620B63DC
:10071800084801F083F900280AD1064800F0B8FA21
:1007280019B000BDFFF730FFFFF72EFFFFF72CFFD2
:10073800FFF72AFFA8010020002C0140A761000054
:1007480010B592B005AC34220021200002F0E8FB7D
:100758001022002101A802F0E3FB8020800001F0B4
:10076800DFFE0123059380235B02069302230C938B
:1007780001330D9300230E9308330F9380239B02BC
:10078800109380239B051193200001F0ADF90028F8
:100798000ED101A807230193053B43600023836022
:1007A800C360022101F04CFC002803D112B010BD37
:1007B800FFF7EAFEFFF7E8FE30B583B001F066FF09
:1007C800FFF7BEFFFFF7A0FEFFF7E0FEFFF71EFFF3
:1007D800FFF750FF3049314C200000F01BF9002191
:1007E800200000F025F92E4800F0AAF8FA20C000F1
:1007F80000F0AEF8FA212B4C8900200000F06AF8CE
:10080800200000F06BF828492848642200F0DAF844
:1008180027486422274900F09DF92748642300935C
:10082800264B274A274900F019F90DE001F04EFF41
:1008380001001C4B180000F05BF801F047FF1B4B50
:100848009A68214900F08AF801F040FF0100174C2E
:10085800200000F0C3F8A06803F0D4FF051C01F0E5
:1008680035FF0200124C291C200000F07AF9646858
:1008780001F02CFF0500201C02F0CCFF01000E4CFB
:100888002B00124A200000F0FDF80100FF28CDD00F
:10089800024800F0CDF8C9E7A8010020A800002010
:1008A800C8000020C00000205C010020B00000202B
:1008B800780000209A99993E880000206F12833AA8
:1008C8008FC2753C0AD7233CB04800088813000043
:1008D8000180704710B5FFF7FBFF10BD10B58021F0
:1008E80001228901014801F00DFE10BD00040050ED
:1008F80070B504000D004368CB1A0288934200D2F9
:1009080070BD80218901024801F002FE6560F7E7A9
:100918000004005010B5A0B002000B00802168460A
:1009280002F0F2FA6846FFF7C3FB82B2034B18687D
:100938006423694602F0B7F820B010BDF401002026
:10094800024B1860FA2292005A607047F4010020A6
:10095800014B58607047C046F40100200EB410B532
:1009680083B00400094A9368C31A5268934204D8B2
:1009780003B010BC08BC03B0184706A9019105983C
:10098800FFF7C8FF014B9C60F2E7C046F401002066
:1009980010B5037F022B00D010BD042100F0B0FB7E
:1009A800054B18601A6805490868121A044802605D
:1009B8001B680B60F0E7C046080200200402002014
:1009C8000002002010B5030008001960002199609A
:1009D8005A60D960043100F02DFF10BD70B50400D5
:1009E8000D00C368CB1A426893420ED372B6074B08
:1009F800196862B6002904D049000548FFF76AFB68
:100A08000600002E00D0A660E56070BD0002002040
:100A18000087930310B50400080021600023E380D9
:100A2800A38000F039FB2068002100F069FE10BDAA
:100A380010B50400642900D964216423591AC9B285
:100A4800054848436421FFF7CFFB23681B6800046F
:100A5800000C586310BDC046A761000010B5040023
:100A68000298E06121606260A36003F0CBFE044954
:100A780003F0F6F8A0610023E360236110BDC046CF
:100A880000007A44F8B5CE46474680B504001E00FB
:100A9800C368F31AC069834257D3551A2368984626
:100AA800280003F05FFE071C011C404603F0A6FA6D
:100AB8008046636999466168381C03F09FFAA76904
:100AC800391C03F09BFA011C484602F0BBFE60612A
:100AD8001F49FFF79BFC002801D01D4B636160692B
:100AE8000021FFF77FFC002821D1A36899462069DF
:100AF800281A03F037FE494603F080FA391C03F040
:100B0800AFF8071C6069414602F09CFE391C02F0F0
:100B180099FE071C0E49FFF779FC00280AD100212D
:100B2800381CFFF75FFC002805D0002703E00023EE
:100B38006361DAE7064F2561E660381C02F06AFE59
:100B4800C0B2C0BCB946B046F8BDFF20F9E7C04600
:100B58000000C84201600023436002810023C36093
:100B68007047F8B504001500C368D31A0289934288
:100B780012D30768381C03F041FA061C391CFE2002
:100B8800800503F08DFB616803F038FA011C301C06
:100B980002F058FE6060E560606802F03BFE80B2DB
:100BA800F8BDFEE7FEE77047704710B501F082FD1B
:100BB80010BD000010B5024800F0C0FA10BDC046D4
:100BC8005C01002082B00A4B196C012211431964A0
:100BD800196C0A400092009ADA6B802149050A4391
:100BE800DA63DB6B0B400193019B02B07047C04690
:100BF8000010024082B00268074B9A4201D002B04E
:100C08007047064B1A6C802109010A431A641B6C51
:100C18000B400193019BF2E7002C014000100240B9
:100C280010B588B004001422002103A802F078F956
:100C38002268144B9A4201D008B010BD124BDA6BEF
:100C480002200243DA63DA6B02400192019A596B7F
:100C58000422114359635B6B1A400292029B03A959
:100C68008023039348607F3B0B61084801F090FBA9
:100C780000220021102001F0C9FC102001F0CAFC5C
:100C8800DAE7C046000400400010024000080050A7
:100C980010B586B004001422002101A802F040F922
:100CA80022680D4B9A4201D006B010BD0B4A516B19
:100CB800012319435163526B13400093009B01A910
:100CC80080235B000193FE3B4B600B61A020C005B5
:100CD80001F05EFBE8E7C046002C0140001002402E
:100CE80010B58EB004001422002109A802F018F9EA
:100CF8001C22002102A802F013F92268174B9A421D
:100D080001D00EB010BD0123029302A801F078FAB9
:100D180000281FD1124B1A6C8021C9010A431A649A
:100D28001A6C0A400092009A596B042211435963C5
:100D38005B6B1A400192019B09A9302309932E3B52
:100D48004B6000238B60CB6001330B61054801F0D9
:100D58001FFBD6E7FFF718FCDCE7C0460038014068
:100D6800001002400008005030B5056A036A0122ED
:100D78009343036242688369194C23400C681C43FF
:100D880002239D438B682B43164DA84208D0164D6D
:100D9800A84205D0154DA84202D0154DA84206D14B
:100DA8000825AB431D00CB682B430425AB430D4DF1
:100DB800A84208D00C4DA84205D00C4DA84202D03C
:100DC8000B4DA84205D10B4D2A404D6915438A6940
:100DD8002A43426084614A684263036230BDC04668
:100DE8008CFFFEFF002C0140004001400044014000
:100DF80000480140FFFCFFFF30B5046A036A184A47
:100E0800134003624268C369164D2B400D681D43A9
:100E1800154B1C408B681B022343144CA04209D07D
:100E2800134CA0420DD0134CA0420AD0124CA04241
:100E38000FD106E0114C1C40CB681B022343104C19
:100E48002340104C22404C69240114438A69120142
:100E580022434260C5614A68C263036230BDC0462E
:100E6800FFFEFFFF8CFFFEFFFFFDFFFF002C014090
:100E7800004001400044014000480140FFF7FFFFE7
:100E8800FFFBFFFFFFCFFFFF30B5046A036A134A79
:100E9800134003624368C269114D2A400D682D0250
:100EA8001543104A14408A68120322430E4CA0428C
:100EB80008D00E4CA04205D00D4CA04202D00D4CDB
:100EC800A04204D10C4C1C404B699B012343436056
:100ED800C5614B680364026230BDC046FFEFFFFF87
:100EE800FF8CFFFEFFDFFFFF002C014000400140A8
:100EF8000044014000480140FFBFFFFF30B5046ACD
:100F0800036A124A134003624368426D104D2A4037
:100F18000D6815430F4A14408A68120422430E4C88
:100F2800A04208D00D4CA04205D00D4CA04202D0E2
:100F38000C4CA04204D1054C1C404B691B022343B6
:100F4800436045654B688365026230BDFFFFFEFF65
:100F58008FFFFEFFFFFFFDFF002C01400040014016
:100F6800004401400048014030B5046A036A134A4E
:100F7800134003624368426D114D2A400D682D02EB
:100F88001543104A14408A68120522430E4CA042A9
:100F980008D00E4CA04205D00D4CA04202D00D4CFA
:100FA800A04204D10C4C1C404B699B022343436074
:100FB80045654B68C365026230BDC046FFFFEFFF61
:100FC800FF8FFFFEFFFFDFFF002C014000400140C4
:100FD8000044014000480140FFFFFBFF70B5046A70
:100FE800056A1026B54305628569084E3540120228
:100FF8002A43074D2A401B071B0C1343A022944386
:1010080009010A4022438361026270BDFFFCFFFFB1
:10101800FF0FFFFF70B5056A046A0C4E3440046286
:10102800C4690536FF36B4431443F02294431A01C9
:10103800FF2313402343064A15400902A022120148
:1010480011402943C361016270BDC046FFFEFFFF26
:10105800FFF5FFFF70B5046A056A0B4E354005625F
:10106800C5690A4E354012022A43094D2A401B071A
:101078001B0C1343074A14400903A0221202114013
:101088002143C361016270BDFFEFFFFFFFFCFFFF5B
:10109800FF0FFFFFFF5FFFFF3D23C35C012B20D144
:1010A8003C330222C2540368114A93420BD0114ABE
:1010B800934208D0104A934205D01A6801210A4386
:1010C8001A6000200EE09A680C490A40062A0AD0E5
:1010D80007398A4209D01A6801210A431A60002098
:1010E80000E0012070470020FCE70020FAE7C04636
:1010F800002C0140000400400040014007000100AE
:10110800082913D008D800290DD0042902D1036872
:10111800986B0AE0002008E00C2902D10368186CDB
:1011280003E0002001E00368586B70470368D86B40
:10113800FBE77047704770477047000070B50500BF
:101148000368DE681C69A2070ED5B2070CD5032216
:1011580052421A610123037703689B699B0757D0A2
:10116800FFF716FC00232B77630712D5730710D5FA
:101178002B68052252421A6102232B772B689A6941
:10118800C0239B001A4249D02800FFF701FC002326
:101198002B77230710D533070ED52B680922524227
:1011A8001A6104232B772B68DB699B073DD0280045
:1011B800FFF7EEFB00232B77E30612D5F30610D5D5
:1011C8002B68112252421A6108232B772B68DA699F
:1011D800C0239B001A422FD02800FFF7D9FB002319
:1011E8002B77E30701D5F3072DD482239B011C42FB
:1011F80001D033062FD4E30501D5330632D4630674
:1012080001D5730635D4A40601D5B60639D470BD08
:10121800FFF790FF2800FFF78EFFA3E72800FFF7EE
:1012280089FF2800FFF787FFB1E72800FFF782FF53
:101238002800FFF780FFBDE72800FFF77BFF2800A5
:10124800FFF779FFCBE72B68022252421A61280088
:10125800FFF76FFFC9E72B680E4A1A61280000F0F4
:1012680040FCC8E72B680C4A1A61280000F03AFCD9
:10127800C5E72B68412252421A612800FFF75CFF3C
:10128800C1E72B68212252421A61280000F028FC8D
:10129800BDE7C0467FDFFFFFFFFEFFFF0368204A70
:1012A800904202D01F4A904203D1702293434A6869
:1012B80013431B4A90420ED01A4A90420BD01A4A46
:1012C800904208D0194A904205D0194A904202D05B
:1012D800184A904203D1184A1A40CB681343802217
:1012E80093434A69134303608B68C3620B68836244
:1012F8000B4B984208D00D4B984205D00C4B9842A6
:1013080002D00C4B984201D10B690363012343615E
:101318000269134203D003690122934303617047B2
:10132800002C014000040040002000400040014023
:101338000044014000480140FFFCFFFF70B5041E57
:101348002AD03D23C35C002B20D03D2502236355C2
:10135800210001C9FFF7A2FF01234822A3540A3A3A
:10136800A3540132A3540132A3540132A3540132CD
:10137800A3540132A3540132A3540132A3540132BD
:10138800A3540132A3546355002070BD3C3300229E
:10139800C254FFF72FFCD8E70120F6E770B5041E0A
:1013A8002AD03D23C35C002B20D03D250223635562
:1013B800210001C9FFF772FF01234822A3540A3A0A
:1013C800A3540132A3540132A3540132A35401326D
:1013D800A3540132A3540132A3540132A35401325D
:1013E800A3540132A3546355002070BD3C3300223E
:1013F800C254FFF715FCD8E70120F6E770B5026A7A
:10140800036A1024A343036244688369164D2B4082
:101418000D682D021D4320239A438B681B0113433B
:10142800124A904209D0124A90420ED0114A904274
:101438000BD0114A904210D107E0802293431E003E
:10144800CB681B013343403A93430C4A14404A6922
:10145800920022438C69A4001443446085614A6861
:101468008263036270BDC046FF8CFFFE002C014002
:10147800004001400044014000480140FFF3FFFFE5
:1014880070B504000D003C23C35C012B00D192E031
:101498003C230121C154142A00D987E09200474B0C
:1014A8009B589F4600682900FFF75EFC22689369F5
:1014B80008210B4393612268936904398B43936134
:1014C8002268936929690B43936100206FE00068E3
:1014D8002900FFF793FF2268916980231B010B43C2
:1014E80093612268936936490B40936121688B693F
:1014F8002A69120213438B61002058E00068290012
:10150800FFF77AFC2268D36908210B43D36122686C
:10151800D36904398B43D3612268D36929690B43A2
:10152800D361002043E000682900FFF7ADFC226882
:10153800D16980231B010B43D3612268D3692049F9
:101548000B40D3612168CB692A6912021343CB612E
:1015580000202CE000682900FFF7D0FC2268536DBA
:1015680008210B4353652268536D04398B43536537
:101578002268536D29690B435365002017E0006802
:101588002900FFF7F1FC2268516D80231B010B43F2
:1015980053652268536D0A490B40536521684B6DAA
:1015A8002A69120213434B65002000E001203C2306
:1015B8000022E25470BD0220FCE7C046C048000883
:1015C800FFFBFFFF70B51600046A026A0125AA43F3
:1015D800026282690D4DA84208D00D4DA84205D07F
:1015E8000C4DA84202D001252A4302E00325AA4354
:1015F8003243F025AA431D01FF232B4013430A223F
:1016080094430A4022438361026270BD002C01406A
:10161800000400400040014070B504000D003C2368
:10162800C35C012B59D03C230121C154002A0AD0A4
:10163800042A1AD0082A2BD00C2A3BD001203C239C
:101648000022E25470BD29686A68EB680068FFF7F9
:10165800B9FF226893690C218B43936122689369CF
:10166800A9680B4393610020E9E729686A68EB6879
:101678000068FFF7B3FC2268936919490B4093612E
:1016880021688B69AA68120213438B610020D6E790
:1016980029686A68EB680068FFF7BCFC2268D369B0
:1016A8000C218B43D3612268D369A9680B43D361AA
:1016B8000020C4E729686A68EB680068FFF7CAFC7D
:1016C8002268D36906490B40D3612168CB69AA68AF
:1016D80012021343CB610020B1E70220B2E7C046F3
:1016E800FFF3FFFF10B51F23194001248C40036A44
:1016F800A3430362036A8A401343036210BD0000D8
:1017080010B50400102926D88B00424AD3589F46AA
:101718003E23C35C013B5A1E9341DBB221E03F23C9
:10172800C35C013B5A1E9341DBB21AE04023C35C01
:10173800013B5A1E9341DBB213E04123C35C013BDA
:101748005A1E9341DBB20CE04223C35C013B5A1E94
:101758009341DBB205E04323E35C013B5A1E93410E
:10176800DBB2002B50D1102917D88B002A4AD35846
:101778009F463E230222E25412E03F230222E25413
:101788000EE040230222E2540AE041230222E254FE
:1017980006E042230222E25402E043230222E254FA
:1017A80020680122FFF79EFF23681C4A934208D055
:1017B8001B4A934205D01B4A934202D01A4A9342CD
:1017C80004D1596C802212020A435A642368134ACE
:1017D80093420BD0154A934208D0114A934205D040
:1017E8001A6801210A431A6000200EE09A6810491D
:1017F8000A40062A0AD007398A4209D01A68012104
:101808000A431A60002000E0012010BD0020FCE718
:101818000020FAE71449000858490008002C014044
:1018280000400140004401400048014000040040DD
:101838000700010010B5040010291AD88B00534A7C
:10184800D3589F463E23C05CC0B20633E35CDBB28C
:1018580019E03F23C05CC0B20EE04023C05CC0B2B8
:101868000AE04123C05CC0B206E04223C05CC0B2BB
:1018780002E04323E05CC0B204290ED0082910D04E
:101888004723E35CDBB201287AD1012B79D11029F7
:1018980026D88A003E48825897464523E35CDBB247
:1018A800F1E74623E35CDBB2EDE702233E22A354D3
:1018B8000632A3542268D36802200343D3602AE087
:1018C8003F220220A0540EE040220220A0540AE049
:1018D80041220220A05406E042220220A05402E045
:1018E80043220220A05404290DD0082927D04722DA
:1018F8000220A054082925D02AD80029DAD00429A2
:1019080004D018003DE045230222E2542268D3683F
:1019180004200343D36020680122FFF7E3FE226816
:101928001C4B9A421ED01C4B9A421BD01B4B9A420E
:1019380018D0136801210B431360002021E04623CF
:101948000222E2542268D36808200343D360E2E706
:101958000C2905D12268D36810200343D360DAE745
:1019680018000EE093680E490B40062B0AD0073981
:101978008B4209D0136801210B431360002000E05B
:10198800012010BD0020FCE70020FAE79C49000870
:10199800E0490008002C01400004004000400140DC
:1019A8000700010030B53C23C35C012B2CD03C233D
:1019B8000122C25401330132C25402685368956847
:1019C800124CA2421BD07024A3430C6823435360DB
:1019D80003680E4A934205D00D4A934202D00D4A3D
:1019E800934204D1802295438A682A439A603D2312
:1019F8000122C254013B0022C254002030BD064CD3
:101A080023404C682343DEE70220F7E7002C01401F
:101A18000004004000400140FFFF0FFF10B53C23C9
:101A2800C35C012B40D03C230122C254CB681F4A1F
:101A380013408A6813431E4A13404A6813431D4AD9
:101A480013400A6813431C4A13400A6913431B4A8C
:101A580013404A6913431A4A13400A6B1343194A3D
:101A680013408A6912041343174A1340CA6913437F
:101A78000268164CA24205D053643C230022C2548B
:101A8800002010BD124C23408C6A24052343114CBE
:101A980023400C6A2343104C23404C6A23430F4CC9
:101AA8002340C96A0B43E7E70220EAE7FFFCFFFF90
:101AB800FFFBFFFFFFF7FFFFFFEFFFFFFFDFFFFF6A
:101AC800FFBFFFFFFFFFF0FFFFFFFFEF002C01400C
:101AD800FFFF0FFFFFFFFFFEFFFFFFFDFFFFFFDF21
:101AE800704770477047000070B582B0041E00D17F
:101AF80029E20368DB0739D5C14A916838230B40CE
:101B0800D16803220A40102B26D0082B26D0636800
:101B18008022520293427FD0A022D202934200D167
:101B280081E0B74B1A68B7490A401A601A68B64983
:101B38000A401A606368002B00D180E000F0C6FDFF
:101B48000500AF4B1B689B0310D400F0BFFD401B82
:101B58006428F6D90320F7E1032AD6D1A84B1B68DD
:101B68009B0303D56368002B00D1EFE123689B0733
:101B780031D5A34A916838230B40D16803220A4023
:101B8800102B6AD0002B6BD19D4A1268520503D5E1
:101B9800E268002A00D1DBE1994842689B490A4083
:101BA800616909020A434260002B0DD10368984914
:101BB8000B4021690B4303600368DB0A07221A40C4
:101BC800944BD340944A1360944B186800F032FD4C
:101BD800002800D0BEE123681B0700D481E0884BB1
:101BE8009A6838231340182B73D0A369002B00D1AF
:101BF800B4E0834A136E01210B43136600F066FDBF
:101C080005007F4B1B6E9B076BD400F05FFD401BEC
:101C18000228F6D9032097E1794A116880235B02EC
:101C28000B43136086E7764B19688022D2020A4379
:101C38001A601968802252020A431A607AE700F093
:101C480045FD05006E4B1B689B038FD500F03EFDDC
:101C5800401B6428F6D9032076E1022A92D193E743
:101C6800E368002B22D0664A136869490B40216952
:101C78000B431360116880235B000B43136000F073
:101C880025FD05005E4B1B685B0506D400F01EFDB4
:101C9800401B0228F6D9032056E159494B685B4A94
:101CA80013406269120213434B6094E7544A136865
:101CB8005B490B40136000F009FD0500504B1B68A1
:101CC8005B0588D500F002FD401B0228F6D90320E9
:101CD8003AE14B4B1B6E9B0703D5A369002B00D140
:101CE8003AE123685B0700D4A2E0454B9A683823A1
:101CF8001340202B45D0424BDB6BDB004AD4404BD2
:101D0800DA6B802149050A43DA63DB6B0B400193E8
:101D1800019B0125434B1B68DB053DD5A368012BBF
:101D28004ED0052B52D0364BDA6D01218A43DA6545
:101D3800DA6D03318A43DA65A368002B50D000F0CE
:101D4800C5FC06002E4BDB6D9B076FD400F0BEFC74
:101D5800801B354B9842F5D90320F5E0284A136ECD
:101D680001218B43136600F0B1FC0500244B1B6E68
:101D78009B07B6D500F0AAFC401B0228F6D9032021
:101D8800E2E01F4BDB6D9B0752D5A368002B4FD1B8
:101D98000120D9E00025BDE7224A116880235B00B5
:101DA8000B43136000F092FC06001E4B1B68DB051A
:101DB800B4D400F08BFC801B0228F6D90320C3E0C2
:101DC8000F4AD36D01210B43D365B5E70C4BDA6D90
:101DD80004210A43DA65DA6D03390A43DA65ABE7A9
:101DE80000F074FC0600064BDB6D9B071ED500F067
:101DF8006DFC801B0C4B9842F5D90320A4E0C0462B
:101E080000100240FFFFFEFFFFFFFBFFFF80FFFF08
:101E1800FFC7FFFF0024F400080000200400002092
:101E2800FFFEFFFF0070004088130000012D1ED048
:101E3800E369002B00D191E04F4A916838220A40AB
:101E4800102A5ED0022B18D04B4A13684B490B401E
:101E5800136000F03BFC0400474B1B689B0149D50D
:101E680000F034FC001B0228F6D903206CE0424A3B
:101E7800D36B43490B40D363DAE73F4A13683F49C2
:101E88000B40136000F022FC05003B4B1B689B01D4
:101E980006D500F01BFC401B0228F6D9032053E0AE
:101EA800354AD36837491940236A606A0343A06AF0
:101EB80000020343E06A0343206B03430B43D360F0
:101EC800116880235B040B431360D16880235B0592
:101ED8000B43D36000F0FAFB0400274B1B689B01FF
:101EE80006D400F0F3FB001B0228F6D903202BE0F0
:101EF800002029E0204AD36823490B40D360002002
:101F080022E0012B2CD01C4BDA6803231340216AF2
:101F18008B4227D170231340616A8B4224D1FE2162
:101F2800C9011140A36A1B0299421FD1F8239B03E0
:101F38001340E16A8B421BD1520F5207236B9A421E
:101F480018D1002000E0012002B070BD0120FBE79D
:101F58000120F9E70120F7E70120F5E70020F3E782
:101F68000120F1E70120EFE70120EDE70120EBE791
:101F78000120E9E70120E7E700100240FFFFFFFE2C
:101F8800FFFFFFEF8C80C11FFCFFFEEF10B52A4B4F
:101F98009B6838221A4207D1274B1A68D20A0723AE
:101FA80013402648D84010BD234B9A683823134065
:101FB800082B3BD0204B9A6838231340102B0DD0A8
:101FC8001D4B9A6838231340202B31D01A4B9A683E
:101FD80038231340182B26D00020E4E7164AD1688E
:101FE8000D3B0B40D2681209072111400131032B28
:101FF8000FD01248FEF76EF80F4BDA68120A7F23EB
:10200800134058430C4BD968490F0131FEF762F869
:10201800C9E70A48FEF75EF8074BDA68120A7F2319
:1020280013405843EEE7FA20C001BCE70348BAE77B
:1020380080200002B7E7C046001002400024F400E8
:1020480070B504000D00002800D1AAE0574B1A68AB
:10205800072313408B4221D323689A070ED55B07C9
:1020680005D5534A9168E023DB010B439360504A3E
:10207800936850490B40A1680B4393602368DB07C2
:1020880054D56368012B20D0022B3BD0002B3FD1C5
:10209800474A126852051CD401206AE0434A136873
:1020A80007218B432B43136000F010FB06003F4BC6
:1020B8001A6807231340AB42CED000F007FB801B01
:1020C8003D4A9042F3D9032053E0394A12689203FB
:1020D80069D537498A680720824313438B6000F02B
:1020E800F5FA0600324B9B6838221A406368DB0019
:1020F8009A421BD000F0EAFA801B2F4B9842F1D984
:10210800032036E02A4A12689201E2D4012030E026
:10211800032B05D0264AD26D9207DAD4012028E095
:10212800234A126E9207D4D4012022E01F4B1A686A
:1021380007231340AB421DD823685B0706D51C4A0A
:1021480093681E490B40E1680B439360FFF71EFF3D
:10215800174B9A68120A0F231340194A9B009A5882
:102168001F231340D840174B1860174B186800F00E
:1021780061FA70BD0D4A136807218B432B43136026
:1021880000F0A4FA0600094B1A6807231340AB4273
:10219800D2D000F09BFA801B074B9842F3D903205A
:1021A800E7E70120E5E70120E3E7C0460020024019
:1021B80000100240FFF0FFFF88130000FF8FFFFFB1
:1021C8006C4A00080800002004000020014B186831
:1021D8007047C0460800002010B5FFF7F7FF064B10
:1021E8009A68120B07231340044A9B009A581F232E
:1021F8001340D84010BDC046001002404C4A0008A9
:10220800F0B583B0040003689B0362D5584BDB6BC1
:10221800DB001ED4564BDA6B802149050A43DA638A
:10222800DB6B0B400193019B0126524A1168802306
:102238005B000B43136000F049FA05004D4B1B6827
:10224800DB0508D400F042FA401B0228F6D9032522
:1022580002E00026E9E70025002D23D1444BD96D83
:10226800C02292000B001340114212D0A2699A4278
:102278000DD03F4AD36D40490B40D06D80214902B3
:102288000143D165D16D3D480140D165D365DB0778
:1022980010D4002D06D1364AD36D37490B40A169B9
:1022A8000B43D365012E15D1314AD36B34490B400A
:1022B800D3630FE000F00AFA07002D4BDB6D9B0794
:1022C800E7D400F003FAC01B2E4B9842F5D903253A
:1022D800DFE700252368DB0706D5254A536D032170
:1022E8008B4361680B43536523689B0706D5204AD7
:1022F800536D0C218B43A1680B43536523689B06E0
:1023080006D51B4A536D20490B40E1680B435365C2
:1023180023685B040BD5164A536D9B009B086169C3
:102328000B43536562698023DB059A4211D0236809
:102338001B050BD50E4A536D14490B4021690B43FD
:10234800536522698023DB019A4209D0280003B033
:10235800F0BD074AD16880235B020B43D360E6E7F0
:10236800034AD16880235B020B43D360EEE7C04683
:102378000010024000700040FFFCFFFFFFFFFEFF5F
:10238800FFFFFFEF88130000FFCFFFFFFF3FFFFFB6
:10239800F0B5002359E086685F000324BC40A643DB
:1023A800CC68BC4034438460446894434E68360922
:1023B800012232409A402243426056E0DE08083645
:1023C800B600375805321A4092000F249440A743AC
:1023D8000C69944022003A43325059E0032600E049
:1023E8000026A64034003C43424E183292009451D5
:1023F8003768EA433E00AE434C68E40201D53E002C
:102408002E433C4C266067683E0016404C68A40288
:1024180001D53E002E43374C66608426A7593E00FE
:1024280016404C68A40301D53E002E43314C842746
:10243800E6518026A65932404C68E40301D52A00AB
:1024480032432C4D80242A5101330C682200DA4093
:102458004ED001229A40250015401442F4D04E680F
:1024680003243440013C012C95D94C6803222240B6
:10247800032A08D0C4685E000322B24094438A68E5
:10248800B2402243C2604C6803222240022A95D0FF
:1024980004685E0003221700B740BC434F683A4007
:1024A800B240224302604C68C02292021442CBD050
:1024B8009A0814001834A4000E4EA75903241C408F
:1024C800E4000F26A640B743A026F605B04287D001
:1024D800094EB04208D0094EB04207D0084EB0426B
:1024E80000D17BE705267CE701267AE7022678E714
:1024F800F0BDC0460018024000040050000800501B
:10250800000C0050002A01D0816170478162FCE70D
:10251800426913000B401B0491430B4383617047CE
:1025280010B5104A136810490B4003431360802309
:102538009B00984201D0002010BD0C4B1B6858002E
:10254800C01840000A49FDF7C5FD0130054B5B691D
:102558005B0503D5002803D00138F7E70020EBE737
:102568000320E9E700700040FFF9FFFF08000020A2
:1025780040420F0070B5002811DB8308134DC033AB
:102588009B005C5903221040C000FC3216008640B4
:10259800B44389010A40824022435A5170BD0F2337
:1025A8000340083B9B0806339B00094A9446634452
:1025B8005C6803221040C000FC3215008540AC4323
:1025C80089010A40824022435A60E7E700E100E0BF
:1025D80000ED00E0013880235B0498420FD2094ADD
:1025E80050600948036A1B021B0AC02109060B43F5
:1025F80003620023936007331360002070470120B3
:10260800FCE7C04610E000E000ED00E010B5FFF781
:10261800B1FF10BD002805DB1F22024001239340B3
:10262800014A13607047C04600E100E010B5FFF7AB
:10263800D1FF10BD10B50400114B1978002901D144
:10264800012010BDFA208000FDF744FD01000D4B6C
:102658001868FDF73FFDFFF7E9FF00280DD1032CAF
:1026680001D90120EDE70130002221004042FFF7A7
:10267800CDFF054B1C600020E3E70120E1E7C046E1
:1026880000000020080000200400002010B5084ABF
:10269800116880235B000B4313600320FFF7CAFF18
:1026A800041E02D00124200010BDFEF78BFAFAE7C1
:1026B80000200240034B1B78034A11685B18136023
:1026C8007047C046000000200C020020014B18682B
:1026D8007047C0460C02002030B5EFF31084012289
:1026E80082F3108801680B68124D2B400B6084F34D
:1026F8001088EFF3108182F31088026893680E4CFB
:102708002340936081F31088C36E012B06D08C237D
:102718002022C2500023C366436730BDEFF3108107
:1027280083F31088026813681024A343136081F3AD
:102738001088ECE7DFFEFFFFFEFFFFEF10B5040097
:1027480083680269134342691343C26913430168EA
:102758000A686A48024013430B6022685368684954
:102768000B40E1680B435360A369226A1A4321684E
:102778008B686448034013438B602268D36A0F2137
:102788008B43616A0B43D36223685F4A934218D034
:102798005E4A934226D05E4A934244D05D4A9342B1
:1027A80031D01023E0698022120290423DD0042BE0
:1027B80000D18FE06DD8002B72D0022B67D156481C
:1027C80072E0564B5A6D03231340022B1DD005D8D7
:1027D800002B1CD0012B1CD10333E3E7032B1AD1A8
:1027E8000533DFE74D4B5A6D0C231340082B14D0EB
:1027F80005D8002B13D0042BD4D01023D2E70C2BF0
:102808000FD1043BCEE70023CCE70223CAE700231D
:10281800C8E71023C6E71023C4E70223C2E7002352
:10282800C0E71023BEE70023BCE7042B2CD007D851
:10283800002B09D0022B01D1374809E0012053E0D1
:10284800082B05D001204FE0FFF7C6FC002844D034
:10285800626A334B5200D15AFDF73CFC4000616874
:102868004B08C018FDF736FC0200103A2D4B9A426F
:1028780035D882B20F239A434008083B03401343DC
:102888002268D36000202FE0FFF780FBDEE70120FD
:102898002AE0082B02D18020000205E0012023E075
:1028A800FFF79AFC00281CD0626A1D4B5200D15ACF
:1028B800FDF710FC61684B08C018FDF70BFC02001F
:1028C800103A184B9A420ED823680004000CD860BE
:1028D800002009E0FFF75AFBE4E7002004E00120AC
:1028E80002E0002000E0012001236A22A352023AFC
:1028F800A35200236367A36710BDC046F369FFCFE7
:10290800FFCFFFFFFFF4FF110038014000440040F3
:1029180000480040004C00400024F4000010024031
:10292800244A0008EFFF0000836A1B0706D50268E7
:1029380053682C490B40816B0B435360836ADB0758
:1029480006D50268536828490B40C16A0B43536097
:10295800836A9B0706D50268536824490B40016BBC
:102968000B435360836A5B0706D5026853682049A6
:102978000B40416B0B435360836ADB0606D5026844
:1029880093681C490B40C16B0B439360836A9B0699
:1029980006D50268936818490B40016C0B43936095
:1029A800836A5B060BD50268536814490B40416C77
:1029B8000B435360426C80235B039A420AD0836ABC
:1029C8001B0606D5026853680D490B40C16C0B43C2
:1029D80053607047026853680A490B40816C0B4387
:1029E8005360ECE7FF7FFFFFFFFFFDFFFFFFFEFFE8
:1029F800FFFFFBFFFFEFFFFFFFDFFFFFFFFFEFFF23
:102A0800FFFFF7FFFFFF9FFFF8B5CE46474680B5AB
:102A180006000D0017009946089B98463368DC6944
:102A28002C40641B63425C41BC4233D143460133B2
:102A3800F4D0FFF74BFE4B46C01A40452FD843460B
:102A4800002B2ED0326813685B07E7D5802DE5D0C0
:102A5800402DE3D0D3691B0710D4D3691B05DDD5FE
:102A680080231B0113623000FFF736FE90232022DB
:102A7800F2500C3B0022F25403200CE008241462AC
:102A88003000FFF729FE9023F4500C3B0022F2544B
:102A9800012000E00020C0BCB946B046F8BD0320C4
:102AA800F9E70320F7E7F0B5C64600B582B00400A1
:102AB8000D0090461E008823C358202B65D100299D
:102AC80068D0002A68D0826880235B019A4204D1CA
:102AD8000369002B01D1CB0760D490230022E25078
:102AE800083B2132E250FFF7F1FD0700542342462C
:102AF800E2520233E252A26880235B019A4202D07A
:102B08000023984618E02369002B29D00023984613
:102B180012E088232022E250032037E043461B8836
:102B28002268DB05DB0D936202239C46E0445623B2
:102B3800E25A013A92B2E2525623E35A002B12D0DB
:102B480000963B00002280212000FFF75DFF00284F
:102B5800DFD1002DE2D02A7823689A620135E6E7B2
:102B6800A8460025E8E700963B0000224021200007
:102B7800FFF74AFF002803D188232022E25005E00E
:102B880088232022E250032000E0022002B080BC0B
:102B9800B846F0BD0120F9E70120F7E70120F5E785
:102BA80030B583B0040090230022C250FFF78EFD99
:102BB800050023681B681B0710D423681B685B0784
:102BC8002BD420238822A3500432A3500023E36689
:102BD8002367083AA354002003B030BD8021234B5B
:102BE80000930300002289032000FFF70DFF00284F
:102BF800E3D0EFF31081012383F310882268136870
:102C080080208343136081F3108888232022E250B8
:102C1800043B0022E2547D38DEE78021134B009309
:102C28002B000022C9032000FFF7EEFE0028C8D0C1
:102C3800EFF31080012282F3108821680B680C4D95
:102C48002B400B6080F31088EFF3108082F310881C
:102C580021688B6893438B6080F310888C231F3224
:102C6800E250083B0022E2540320B5E7FFFFFF01D2
:102C7800DFFEFFFF10B5041E30D08823C358002B99
:102C880022D088232422E2502268136801218B4332
:102C98001360A36A002B1DD12000FFF74FFD012808
:102CA80011D0226853680E490B405360226893681C
:102CB8002A218B4393602268136829390B431360D8
:102CC8002000FFF76DFF10BD84330022C254FEF7C9
:102CD80007F8D6E72000FFF727FEDDE70120F2E737
:102CE800FFB7FFFFF8B50400436E002B05D1013391
:102CF8006A228352023A8352F8BD026895686D0EC3
:102D080007231D409268520F1340084FF85CC0001B
:102D1800074EF15CFDF768FA6A23E052785DC0005F
:102D2800715DFDF761FA6823E052E5E7444A00085F
:102D38003C4A000870B58423C35C012B15D0842459
:102D48000126065588252423435102681368116813
:102D5800B1431160064A13400022426601680B60C5
:102D6800202343510255002070BD0220FCE7C046D5
:102D7800FFFFFFDFF8B504000A008423C35C012BC2
:102D88001BD084250120605588262423A35123685D
:102D98001F6819688143196020688368DB00D908B7
:102DA800114381602000FFF79DFF23681F602023E7
:102DB800A351002363550020F8BD0220FCE7000062
:102DC800F8B504000B008422825C012A1BD08425FC
:102DD8000120605588262422A251226817681168AC
:102DE8008143116022689168084801401943916045
:102DF8002000FFF777FF23681F602023A3510023DB
:102E080063550020F8BD0220FCE7C046FFFFFFF134
:102E18007047000010B503000C4A0D49521A0D49BD
:102E28000968002907D00B490868C318934206D8D7
:102E3800084A136010BD074907480860F3E700F027
:102E480077F80C23036001204042F3E7009000204C
:102E58000004000010020020600300200D48854691
:102E6800FFF7D6FF0C480D490D4A002302E0D4585D
:102E7800C4500433C4188C42F9D30A4A0A4C0023BC
:102E880001E013600432A242FBD300F057F8FDF7CB
:102E980093FCFEE700900020000000205C0000206A
:102EA800644B00085C0000205C030020FEE770B55E
:102EB8000600140008001A009AB0002C05DA8B23CB
:102EC8000120336040421AB070BD82236946002554
:102ED8009B008B81199500900490AC4200D0651E30
:102EE80001235B42CB8130001E9B8D604D6100F059
:102EF800ABF9431C01DA8B233360002CE3D00022AA
:102F0800009B1A70DFE7000013B5044C0093130010
:102F18000A0001002068FFF7CAFF16BD0C00002058
:102F280003008218934200D1704719700133F9E702
:102F3800014B18687047C0460C00002070B5002689
:102F48000C4C0D4D641BA410A64209D1002601F0BB
:102F58009FFC0A4C0A4D641BA410A64205D170BD03
:102F6800B300EB5898470136EEE7B300EB589847A3
:102F78000136F2E75C4B00085C4B0008604B000828
:102F88005C4B00087047704770B505000C1E10D0E8
:102F9800043C2368002B00DAE418280000F0E0F86D
:102FA8001D4A1368002B05D163601460280000F0E7
:102FB800DFF870BDA34208D9206821188B42F3D1ED
:102FC80019685B6809182160EEE71A005B68002B36
:102FD80001D0A342F9D911685018A0420BD120683A
:102FE8000918501811608342E0D118685B684118CD
:102FF80011605360DAE7A04202D90C232B60D5E7B1
:10300800206821188B4203D119685B680918216070
:1030180063605460CAE7C0465803002070B50F4E7D
:103028000D0031680400002902D100F095FB3060E2
:103038002900200000F090FB431C03D101256D42BC
:10304800280070BD0323C51C9D43A842F8D0291A47
:10305800200000F081FB0130F2D1EFE7540300209B
:10306800F7B50322CB1C9343083305001F000C2B34
:1030780034D20C27B94233D8280000F071F8374E03
:1030880033681C00002C2FD139002800FFF7C6FF39
:103098000400431C5FD134680094009B002B4AD184
:1030A800002C52D023682800E3180099019300F0FF
:1030B80053FB019B834248D123682800FF1A39003B
:1030C800FFF7ACFF013040D02368DB192360336879
:1030D8005A68002A33D1009B336019E0002BC9DA03
:1030E8000C232B600020FEBD2168C91B20D40B29AE
:1030F8000AD9E2192760A34204D1326063681160DB
:10310800536005E05A60F9E76268A3420ED1326065
:10311800280000F02DF8200007220B30231D9043D3
:10312800C21A9842DFD01B1AA350DCE75A60EFE7B7
:1031380023006468A6E7009C63680093ADE71A0063
:103148005B68A342FBD10023DAE70C2328002B603D
:1031580000F00EF8C6E70760DAE7C046580300201B
:1031680010B50248FFF70EFF10BDC04650030020FF
:1031780010B50248FFF707FF10BDC04650030020F6
:10318800F0B58E6885B01F000C00330002900392E2
:10319800BE4254D80C22885E9022D20010422CD015
:1031A8000322096923685B1A019363695343019AEF
:1031B800DD0FED187B1C6D109B182A00AB4201D95E
:1031C8001D001A00400527D511000298FFF748FF97
:1031D800061E2AD0019A216900F0DBFAA289194B50
:1031E8001A4080231343A381019B2661F6182660A9
:1031F80065613E00ED1A3B00A5601F003A00039987
:10320800206800F097FA0020A3689B1BA36023683E
:10321800DB19236005B0F0BD029800F0C3FA061E62
:10322800E2D121690298FFF7AFFE0C230120029A30
:1032380040421360A28934331343A381EAE73E0076
:10324800DCE7C0467FFBFFFFF0B59FB002901D0092
:103258008B890F0016001B0612D50B69002B0FD1A6
:103268004021FFF7FDFE38603861002806D10C23A5
:10327800029A1360012040421FB0F0BD40237B61D9
:10328800002306AC6361203363761033A37605957B
:1032980035002B78002B01D0252B48D1AB1B03938D
:1032A800B5420BD0320039000298FFF769FF0130B0
:1032B80000D1AAE06369039A9B1863612B78002BFD
:1032C80000D1A2E00122532100235242626002AAE7
:1032D80052186E1C2360E360A3601370A365524B01
:1032E800052218003178039300F048FA751C22680B
:1032F80000281ED1D30604D5202302A9533009186B
:103308000B70130704D553202B2302A909180B703F
:1033180033782A2B15D0350000210A20E3682A7853
:103328006E1C303A092A4ED9002910D116E0013511
:10333800AFE7039B2E00C01A012383401343236089
:10334800CDE7059B191D1B680591002B01DBE36088
:1033580004E05B42E3600223134323602B782E2BA7
:103368000CD16B782A2B33D1059B02351A1D1B68AB
:103378000592002B01DA01235B4263602B4E032286
:103388003000297800F0FAF9002806D04023801B85
:103398008340226801351343236029780622244894
:1033A8006E1C217600F0EAF9002834D02148002864
:1033B80021D10722059B073393430833059363699B
:1033C8001B18636164E74343350001219B18A6E796
:1033D80000230A201900013563602A786E1C303AF0
:1033E800092A03D9002BC9D06160C7E741433500DA
:1033F80001238918F1E705AA009221003A000E4B33
:10340800029800E000BF431CD9D1BB895B0600D5F8
:1034180030E7606930E705AA009221003A00064BC0
:10342800029800F07BF8EEE7AC4A0008B24A0008C0
:10343800B64A00080000000089310008F7B51600F8
:1034480001938A680B690C000090934200DA13001C
:103458002200336043321278002A01D001333360EE
:1034680023689B0602D5336802333360226806233B
:1034780015001D401A4227D0230043331B785A1EDB
:1034880093412268920630D4220001990098089D41
:103498004332A847013025D006222368002513406F
:1034A800042B05D13368E568ED1AEB43DB171D40A3
:1034B800A3682269934201DD9B1AED180026B542E4
:1034C80020D1002010E00135E36832689B1AAB4236
:1034D800D2DD2200012301990098089F1932B847CC
:1034E8000130F0D101204042FEBD3020E1184331C7
:1034F800087021005A1C45310978A218433202335A
:103508001170C1E72200012301990098089F1A321F
:10351800B8470130E6D00136D1E70000F0B58BB0EE
:1035280006920A0043320793059003920A7E0C0024
:10353800109B782A09D8622A0BD8002A00D1BBE050
:103548007A490491582A00D18FE0250042352A7023
:1035580022E0100063381528F7D8FCF7B1FD1600F3
:103568001F00F6FFF6FFF6FFF6FF1F00F6FFF6FF57
:10357800F6FFF6FFA00036007F00F6FFF6FFB10069
:10358800F6FF3600F6FFF6FF830025001A6842357D
:10359800111D196013682B7001239FE018680968D2
:1035A800021D0D060BD506681A60002E03DA2D23BE
:1035B800039A764213705D4B0A27049319E0066854
:1035C8001A604906F1D536B2EFE71A68096840CAA9
:1035D800080602D4490600D5B6B21A60237E534ABB
:1035E8000A2704926F2B00D1023F230000224333A5
:1035F8001A706368A360002B06DB04212268039D10
:103608008A43226033430CD0039D30003900FCF715
:10361800E7FD049B013D5B5C2B70330006009F4275
:10362800F3D9082F09D12368DB0706D56268236917
:103638009A4202DC3023013D2B70039B5B1B236104
:10364800079B210000930598069B09AAFFF7F6FE41
:10365800013048D1012040420BB0F0BD202209685A
:103668000A432260782232490491210045310A70C8
:103678001968226840C9100602D4500600D5B6B2AF
:103688001960D30702D5202313432360002E01D0ED
:103698001027AAE72022236893432360F8E71A68D3
:1036A8000D68101D4969186013682E0601D5196048
:1036B80002E06D06FBD519800023039D2361BFE757
:1036C8001A68111D1960156800212800626800F049
:1036D80055F8002801D0401B60606368236100230F
:1036E800039A1370ACE72A00236906990598079D89
:1036F800A8470130AED023689B0715D4099BE06822
:103708009842A9DA1800A7E722000123069905982C
:10371800079E1932B04701309CD00135E368099AF9
:103728009B1AAB42F0DCE9E70025F7E7BD4A000841
:10373800CE4A000810B5884202D98B18984208D39F
:1037480000239A4207D0CC5CC4540133F9E78B5C60
:103758008354013AFBD210BD002370B5064D040016
:1037680008002B60FFF756FB431C03D12B68002B86
:1037780000D0236070BDC0464C030020C9B2821837
:10378800904201D10020704703788B42FBD0013072
:10379800F6E7002310B59A4200D110BDCC5CC454A2
:1037A8000133F8E7F7B506000C001500002905D12C
:1037B8001100FFF755FC04002000FEBD002A03D1CC
:1037C800FFF7E2FB2C00F7E700F01CF80700854242
:1037D80002D84308AB42EFD329003000FFF740FC82
:1037E8000190002801D1019CE6E72A00BD4200D9DA
:1037F8003A0021000198FFF7CCFF21003000FFF7C5
:10380800C3FBF0E70B1F1B68181F002B01DA0B58CE
:10381800C01870479E2110B5C905041CFCF700FEAE
:10382800002803D1201C00F07DFF10BD9E21201C24
:10383800C90500F035FD00F075FF80231B069C4686
:103848006044F2E74A02F8B5530ACE4699464B005F
:10385800C90F4746884646004502360E1B0E80B5FE
:10386800C40F6F0A9209AD09F11A44454BD00029DB
:1038780038DD002B00D174E0FF2E00D1BEE080239C
:10388800DB041A431B2900DCFDE0013D6B0100D479
:10389800AFE001256D42AD01AF093800FCF7CAFD64
:1038A8003B0005388340864200DCD3E0B94D311A2D
:1038B8001D405A0700D19EE00F221340042B00D16F
:1038C80099E004356B0100D495E0481CFE2951D1DC
:1038D800FF200023C0051843E4072043C0BCB946B5
:1038E800B046F8BD002949D0991B002E72D1002D91
:1038F80000D133E14C1E012900D159E1FF2900D143
:103908004CE121006CE0002900DC81E0002B55D15E
:10391800002A70D04B1E012900D12BE1FF296DD060
:103928001B2B50DC190020235B1A10009A40C8405A
:10393800531E9A410243AD188023DB041D4200D177
:10394800ADE0711CFE2EC3D001206A082840924DBC
:10395800154005436A0700D08BE01D42B5D1EF083A
:1039680034E0002A47D04B1E012966D0FF2945D0F4
:10397800190087E7C0B2AB015B0AABE7FE239C46A0
:10398800701C03006046184200D092E0002E00D060
:10399800E7E0002D00D119E1002A17D08023AF1AE3
:1039A800DB041F4200D142E14446551B00D187E0A9
:1039B80001201D42DFD10021EF0807E0FF2E1DD0B6
:1039C8001B2900DC94E031000535EF087B025B0A17
:1039D800C8B27FE7FF2B00D1E0E08020C004054398
:1039E8001B2900DC88E0551E44461E00690100D5ED
:1039F8004FE731000435EF08FF29E7D1002F00D148
:103A080066E78023DB033B435B02FF205B0A61E739
:103A1800002958D0991B002E00D089E0002D00D134
:103A28009DE04E1E012900D1A4E0FF2900D1B6E097
:103A38001B2E00DDB8E0310081E0AA1A530100D442
:103A4800AFE09701BF093800FCF7F4FC3B000538EC
:103A5800834001261D00811B20200131CD40411AE1
:103A68008B40591E8B411D432AD000216B0700D182
:103A7800F0E00F232B40042B00D022E76B0100D588
:103A880023E7EF08A2E720235B1A10009A40C840FA
:103A9800531E9A410243AD1A6B0100D5FBE66B0732
:103AA80000D1D5E00F2331002B40042B00D008E7CC
:103AB800A1E7AF1A7B014ED4002F00D0EDE6002419
:103AC8000020002306E7FE23711C0B4221D1002EA3
:103AD80000D081E0002D00D19FE0002A00D1B2E0A3
:103AE800AB185A0100D4B0E09B0101205B0AF1E653
:103AF8008023DB041A4316E720242800C840611AF3
:103B08008D4029004C1EA141014344461E00551A10
:103B1800C2E7FF2900D1DBE6AF187F087B0705D095
:103B28000F233D1D3B40042B00D064E7FF084DE701
:103B3800FF2B34D01B2937DC8020C0040543280024
:103B48002026C840711A8D4029004D1EA941014305
:103B58001E008D18F0E64446571B9EE644461500A5
:103B680049E7002D46D1002A66D180230024FF2092
:103B7800DB03AFE6AA18530113D5074F52081740C5
:103B8800530744D00F231340042B40D002213D1D7E
:103B980031E7C046FFFFFFFBFFFFFF7D44464F466E
:103BA8002CE70121D70811E705321900D7080DE7DE
:103BB800571B7B0137D5BF01BF093800FCF73AFC1A
:103BC8003B00053883404446013643E7002A00D1CC
:103BD80075E744464F46F9E6002DE0D08023DB0325
:103BE800002A17D09F4200D20BE7994500D308E777
:103BF8004F4606E78023DB03002A0BD09F4200D202
:103C0800FFE6994500D3FCE644464F46F9E6022113
:103C1800FF08DBE6FF203B435CE6002A00D14FE7C4
:103C28000021D708D2E644460121FF08CEE6002F3E
:103C380000D07BE7002443E780234A46DB03444661
:103C4800FF20134346E60021C0E60021DF08BDE659
:103C58003100D0E601206A0100D58BE62A00DFE7B3
:103C6800F0B546464F46D6464502C0B5C30F470095
:103C780098460E1C6D0A3F0E5BD0FF2F21D0802383
:103C8800ED00DB041D43002399469A467F3F7402EA
:103C98007300640A1B0EF60F002B20D0FF2B43D0B5
:103CA80080220020E400D20414437F3B4246FF1ADE
:103CB8004B4672400F2B00D99DE071499B00CB58B1
:103CC8009F46002D5AD108239946063B74029A460E
:103CD8007300FF27640A1B0EF60F002BDED1002CA1
:103CE8003BD1012342464946724019430E2918D850
:103CF8006448890041588F465346022B00D1B8E0EA
:103D0800032B6ED042462C00012B40D1002000240A
:103D1800C0052043D2071043E0BCBA46B146A846C6
:103D2800F0BDFF200024F3E7002C20D10223FF3F41
:103D3800D8E7002D05D104239946033B00279A466E
:103D4800A5E72800FCF776FB7627431F9D40002354
:103D58007F4299469A463F1A99E72000FCF76AFB8A
:103D6800431F9C4076235B421B1A00209EE70323D7
:103D78004A461A4391460320FC3397E70C23994699
:103D8800093BFF279A4682E703282CD032003800E7
:103D98007F30002847DD630704D00F232340042B1E
:103DA80000D00434230103D53800374B80301C4041
:103DB800FE28B6DCA401640AC0B2A9E78024002268
:103DC800FF20E403A4E78023DB031D4201D01C424B
:103DD8000BD08024E4032C4364024246FF20640A8B
:103DE80096E746462C008023DB031C43640232001E
:103DF800FF20640A8CE76D01600185422DD21B23E8
:103E08000024013F0126290064006D00002901DB20
:103E1800854201D32D1A3443013B002BF3D16B1E8D
:103E28009D412C43B3E701231B1A1B2B00DD6DE7D3
:103E380021009E37D940BC400B00611E8C412343B2
:103E4800590704D00F211940042900D0043359011F
:103E580013D49B0100205C0A5AE71A2301242D1A67
:103E6800D0E7981E43425841404232000024C0B275
:103E78004EE74246FF2000244AE70120002447E796
:103E8800E04A0008204B0008FFFFFFF770B542002A
:103E98004E024C0045026D0A120EC30F760A240E1C
:103EA800C90FFF2A10D0FF2C0CD00120A2420AD142
:103EB800B54208D18B420FD0002A04D12800431EF6
:103EC800984100E0012070BD0120FF2CFBD1354353
:103ED800F9D14B401800F6E70020F4E730B542006E
:103EE80044024D02C30F4800640A120E6D0A000E08
:103EF800C90FFF2A18D0FF280AD0002A1ED100288F
:103F08000AD1002D29D0002C2DD14800013830BD10
:103F1800002D25D1002A01D1002CF6D08B4219D0D2
:103F280001205B421843F2E7002C19D1FF28F7D192
:103F3800002D15D100208B42F2D1E8E70028EFD000
:103F48008B42EDD18242EBDC04DBAC42E8D80020A6
:103F5800AC42DCD258000138D9E7002CD7D0DFE7D3
:103F680002204042D3E78B42DAD1EEE730B5420077
:103F780044024D02C30F4800640A120E6D0A000E77
:103F8800C90FFF2A17D0FF280AD0002A1BD1002802
:103F98000AD1002D1DD0002C2DD14800013811E088
:103FA800002D0ED1002A01D1002CF6D08B420CD165
:103FB8005800013806E0002C03D1FF2805D1002D58
:103FC80015D0022030BD002806D101205B421843DD
:103FD800F8E7002CF6D0F8E78B42F6D18242F4DC01
:103FE800E6DBAC42F1D80020AC42EBD2E0E700209F
:103FF8008B42EAD1E6E78B42E7D1F2E7F0B54F46CC
:104008004646D6464502C0B546000F1C6D0A360E18
:10401800C40F002E00D1CDE0FF2E72D08023ED001A
:10402800DB041D43002399469A467F3E7B025B0AC8
:1040380098467B001B0EFF0F002B72D0FF2B00D180
:10404800A9E07F3BF6184B460A2B00DD85E0434686
:104058008022DB00D2041A434B4690467C40002263
:10406800022B0FDD494601238B40A621C9000B42D4
:1040780000D072E0902189000B4200D0DAE088215C
:10408800194267D1280C42462D042D0C43462900BD
:1040980012041B0C120C51435D4342435843AD18A4
:1040A8000B0C5B199A4203D9802252029446604451
:1040B80009041A04090C52189501691E8D411B0C3C
:1040C800920E1B1815439B011D431B0100D5CFE021
:1040D80030007F30002800DCB1E06B070BD00F23E5
:1040E80032002B40042B06D004352B0103D5803237
:1040F80010006A4B1D40FE2864DCAB015B0AC0B2AD
:104108001FE0002D00D08FE008239946063B9A4611
:104118007B025B0A98467B00FF261B0EFF0F002BD5
:104128008CD14346002B5CD14A4601331A43914651
:1041380013000A2A11DC01227C40022B92DC0020A9
:104148000023C0051843E4072043E0BCBA46B14643
:10415800A846F0BD3C00454692465346022B31D056
:10416800032B11D0012BEAD030008030721C0028BC
:1041780066DD6B07B9D00F232B40042BB4D1B4E70D
:104188000F2A7AD03C0045468023DB032B435B0291
:10419800FF205B0AD5E74346FF36002B34D14A4659
:1041A800023313430A2BD8DC7C40002A0AD09946F4
:1041B800022257E7002D08D104239946033B002625
:1041C8009A4633E7FF200023BBE72800FCF732F9C3
:1041D8007626431F9D400023764299469A46361A12
:1041E80024E74046FCF726F94B46361A763E0A2B5A
:1041F800B3DC43460538834098464B4600227C4052
:10420800022B00DD2EE73DE703234A461A4313003D
:104218000A2AB5DC01229A40882113007C40032237
:10422800194200D12EE795E70C239946093BFF2652
:104238009A46FBE680230024FF20DB0381E7320057
:1042480001231B1A1B2B00DD79E79E3229009540BC
:10425800D9406A1E95410D436B0704D00F232B40AC
:10426800042B00D004356B0113D50120002368E727
:1042780001236A081D40154376E78023DB031D42AE
:1042880082D042461A4200D07EE73C00FF2013430A
:1042980057E7AB0100205B0A53E7C046FFFFFFF773
:1042A800F8B54746CE464B02460080B5C40F4702D4
:1042B800580A844648007A0A360EBF09000ECD0F08
:1042C8009B09FF286DD001214D40311AAC423AD0EC
:1042D800002900DC9CE1002800D19EE0FF2E00D1DF
:1042E80088E08022D20413431B2900DCF6E0013F5A
:1042F8007A0100D479E001277F42BF01BB099846C3
:104308004046FCF797F8434605388340864200DC70
:10431800CCE0B44F311A1F405A0768D00F2213401F
:10432800042B64D004377B0161D5481CFE2900D0DA
:1043380081E0FF200023C0051843E4072043C0BCE8
:10434800B946B046F8BD002900DC79E1002876D1ED
:10435800002B4CD0481E012900D147E1FF2949D044
:104368001B2871DC01001A002020CA40411A8B402A
:10437800591E8B411343FF188023DB041F4200D1D1
:10438800B8E0711CFE2ED4D0012297483A407F082D
:10439800074017437A0700D096E01F42C5D1FA08B4
:1043A80055E03100FF398946002B2CD101214D40C1
:1043B800AC4200D1B4E0494600294CD0002E00D0D0
:1043C800F9E0FF21002F00D108E14A1E012900D1A0
:1043D80056E1FF2900D142E11B2A00DC24E15F1EDF
:1043E8002C0006007A0100D585E731000437FA0869
:1043F800FF292CD1002A9CD08023DB0313435B02C6
:10440800FF205B0A97E7AC4200D1A7E0002922D041
:10441800002ED6D062462C00EEE7002BE7D0481ECF
:10442800012936D0FF29E5D001005DE701203B00D6
:104438007A0100D457E1C0B2BB015B0A7BE7FF2ECB
:10444800D8D01B2900DC9FE031000537FA08530259
:104458005B0AC8B26FE7FE20711C084254D1002ED7
:1044680000D0B1E0002F00D102E1002B00D1F9E02B
:104478008021FA1AC9040A4200D13BE10124DF1B5A
:104488002C40002F49D001200F42D5D10021FA0835
:10449800DDE7FF1A7B0100D4DEE0BD01AD0928008D
:1044A800FBF7C8FF2B000538834001262022811B1B
:1044B8000131521A1F009340CF405A1E93411F43A7
:1044C8002BD000217B07B1D00F233B40042B00D019
:1044D80028E77B0100D528E7FA08B8E71A0020206A
:1044E800CA40411A8B40591E8B411343FF1A7B0166
:1044F80000D502E77B0700D10DE10F2331003B40D7
:10450800042B00D00EE772E7FA1A9046520156D4EF
:104518004346002B00D0F3E60024002000230AE7DE
:10452800494600291CD0002E00D002E7FF21002FA9
:1045380055D04A1E012959D0FF2900D190E01B2AE5
:1045480000DD91E011003A002025CA40691A8F4029
:10455800791E8F4117430600FF180DE7002926D161
:10456800FE20711C084213D1002E00D096E0002FC7
:1045780000D1B4E0002B75D0FB185A0100D4B2E08A
:104588009B015B0AFD38D6E68022D2041343EAE693
:10459800FF2900D1CDE6FA185208530705D00F239A
:1045A800171D1340042B00D021E7D2084FE7002E37
:1045B800BCD0624620E72C00FF200023BBE6012484
:1045C800DB1B98462C409BE6002F75D1002B00D0B2
:1045D80096E080230024FF20DB03ACE62C001F00BC
:1045E80005E7C046FFFFFFFBFFFFFF7DFB185A01F1
:1045F80000D48DE04A4A5B081A40590700D18CE084
:104608000F210B400D39042BCFD00221171DEEE6E8
:10461800002900D11FE7821B1100002E00D1D1E62E
:104628008021C9040F43D7E639002024D140A21ABB
:1046380097407A1E97410F432C000600DF1B56E770
:1046480000298DD0811B002E00D170E71B290BDCBF
:104658008022D204174376E70121FA08F7E62C00F6
:104668006246C7E60021F2E605330100DA08EEE605
:10467800002B00D150E70124002162462C40E6E6D9
:10468800DA1B530132D5920194092000FBF7D2FEC0
:104698002300053883402C00012607E7002FDFD0D0
:1046A800002B17D08023DB039A4200D2A4E69C4556
:1046B80000D3A1E662469FE6002B0BD08023DB03E4
:1046C8009A4200D298E69C4500D395E601246246BA
:1046D8002C4091E68023DB03FF2013432BE60020C8
:1046E800002B00D127E60021DA08B0E62C000121D2
:1046F800D208ACE6002A00D10EE70021D208A6E6CF
:10470800802362460124DB03FF2013432C4012E67A
:104718000121DA089BE6310069E60221D20896E613
:10472800FFFFFF7D41024200C30F490A0020120E1D
:104738007E2A03DD9D2A02DD094A981870478020E9
:1047480000040143952A07DC9620821AD14048428A
:10475800002BF3D10800F1E7963A9140F7E7C046FD
:10476800FFFFFF7F70B5002812D0C317C5185D4042
:10477800C40F2800FBF75EFE9E231B1A962B0FDC46
:10478800082838D0083885406D026D0AD8B202E092
:10479800002400200025C0052843E407204370BDFD
:1047A800992B14DC421F95402A00154911405507E2
:1047B8001CD00F252A40042A18D00431CA08490100
:1047C80015D59F235202181A550AC0B2E3E7020012
:1047D80029001B3291404A1E91410522121AD540E8
:1047E8002A000A43064911405507E2D1CA08520275
:1047F800550AD8B2CFE76D026D0A8E30CBE7C046B6
:10480800FFFFFFFB10B5041E0DD0FBF713FE9E2320
:104818001B1A962B0CDC082834D008388440640214
:10482800640AD8B201E000200024C005204310BD6E
:10483800992B13DC421F9440144A224061071CD074
:104848000F212140042918D00432D408520115D56B
:104858009F236402181A640AC0B2E6E70200210026
:104868001B3291400A00511E8A410521091ACC4089
:104878001443064A22406107E2D1D4086402640A5C
:10488800D8B2D2E76402640A8E30CEE7FFFFFFFB9E
:10489800F8B5C046F8BC08BC9E467047F8B5C04697
:0848A800F8BC08BC9E467047F5
:1048B00046616E2052504D3A202564200A000000C7
:1048C000AC140008B4150008B4150008B4150008AD
:1048D000D6140008B4150008B4150008B415000873
:1048E00004150008B4150008B4150008B415000834
:1048F0002E150008B4150008B4150008B4150008FA
:104900005C150008B4150008B4150008B4150008BB
:1049100086150008181700085E1700085E170008C3
:104920005E170008261700085E1700085E170008CB
:104930005E170008341700085E1700085E170008AD
:104940005E170008421700085E1700085E1700088F
:104950005E170008501700087A170008A217000811
:10496000A2170008A217000882170008A217000863
:10497000A2170008A21700088A170008A21700084B
:10498000A2170008A217000892170008A217000833
:10499000A2170008A21700089A1700084C18000870
:1049A0007A1800087A1800087A1800085A180008BF
:1049B0007A1800087A1800087A18000862180008A7
:1049C0007A1800087A1800087A1800086A1800088F
:1049D0007A1800087A1800087A1800087218000877
:1049E000B2180008E8180008E8180008E8180008DD
:1049F000C8180008E8180008E8180008E8180008B7
:104A0000D0180008E8180008E8180008E81800089E
:104A1000D8180008E8180008E8180008E818000886
:104A2000E0180008010002000400060008000A0067
:104A30000C00100020004000800000010804020467
:104A4000080101010101010307010000000000004D
:104A50000000000000000000000000000100000055
:104A6000020000000300000004000000000000003D
:104A70000000000000000000000000000000000036
:104A80000000000000000000000000000100000025
:104A90000200000003000000040000000600000007
:104AA000070000000800000009000000232D302B43
:104AB0002000686C4C00656667454647003031321F
:104AC0003334353637383941424344454600303176
:104AD00032333435363738396162636465660000D5
:104AE000FE3D00082A3D0008143D0008903D0008E6
:104AF000143D0008C43D0008143D0008903D000826
:104B00002A3D00082A3D0008C43D0008903D0008E9
:104B1000003D0008003D0008003D0008CE3D0008B3
:104B20002A3D00082A3D0008143D00086A3E00089E
:104B3000143D0008C43D0008143D00086A3E00080A
:104B40002A3D00082A3D0008C43D00086A3E0008CE
:0C4B5000003D0008003D0008003D00088A
:044B5C00ED0400085C
:044B6000C104000884
:104B640001000000040000000024F40010000020F4
:104B740000000000140200207C020020E402002057
:104B84000000000000000000000000000000000021
:104B94000000000000000000000000000000000011
:104BA4000000000000000000000000000000000001
:0C4BB400000000000000000000000000F5
:0400000508002E655C
:00000001FF
