:020000040800F2
:10000000009000209D29000881080008830800084E
:1000100000000000000000000000000000000000E0
:10002000000000000000000000000000850800083B
:100030000000000000000000870800088908000890
:10004000ED29000800000000ED290008ED29000856
:10005000ED290008ED290008ED290008ED29000828
:1000600000000000ED290008ED290008ED29000836
:10007000ED290008ED290008ED2900080000000026
:1000800091080008ED290008ED290008ED29000875
:10009000ED290008ED290008ED290008ED290008E8
:1000A000ED290008ED290008ED290008ED290008D8
:0800B000ED290008ED2900080C
:1000B8000023C25C0133002AFBD1581E70470000A0
:1000C80003B47146490840004900095E49008E445E
:1000D80003BC7047002243088B4274D303098B4248
:1000E8005FD3030A8B4244D3030B8B4228D3030C00
:1000F8008B420DD3FF22090212BA030C8B4202D3A2
:100108001212090265D0030B8B4219D300E0090AC9
:10011800C30B8B4201D3CB03C01A5241830B8B42D2
:1001280001D38B03C01A5241430B8B4201D34B03BB
:10013800C01A5241030B8B4201D30B03C01A524120
:10014800C30A8B4201D3CB02C01A5241830A8B42A5
:1001580001D38B02C01A5241430A8B4201D34B028E
:10016800C01A5241030A8B4201D30B02C01A5241F2
:10017800CDD2C3098B4201D3CB01C01A52418309A6
:100188008B4201D38B01C01A524143098B4201D3E0
:100198004B01C01A524103098B4201D30B01C01A0B
:1001A8005241C3088B4201D3CB00C01A5241830885
:1001B8008B4201D38B00C01A524143088B4201D3B2
:1001C8004B00C01A5241411A00D201465241104612
:1001D8007047FFE701B5002000F0F0F802BDC04607
:1001E8000029F7D076E7704703460B437FD40022F7
:1001F80043088B4274D303098B425FD3030A8B42B3
:1002080044D3030B8B4228D3030C8B420DD3FF221C
:10021800090212BA030C8B4202D31212090265D0EA
:10022800030B8B4219D300E0090AC30B8B4201D39D
:10023800CB03C01A5241830B8B4201D38B03C01AE4
:100248005241430B8B4201D34B03C01A5241030B5B
:100258008B4201D30B03C01A5241C30A8B4201D30C
:10026800CB02C01A5241830A8B4201D38B02C01AB7
:100278005241430A8B4201D34B02C01A5241030A2E
:100288008B4201D30B02C01A5241CDD2C3098B4213
:1002980001D3CB01C01A524183098B4201D38B0190
:1002A800C01A524143098B4201D34B01C01A524133
:1002B80003098B4201D30B01C01A5241C3088B4278
:1002C80001D3CB00C01A524183088B4201D38B0063
:1002D800C01A524143088B4201D34B00C01A524105
:1002E800411A00D201465241104670475DE0CA0FDC
:1002F80000D04942031000D34042534000229C469C
:1003080003098B422DD3030A8B4212D3FC228901A5
:1003180012BA030A8B420CD3890192118B4208D37B
:10032800890192118B4204D389013AD0921100E0DD
:100338008909C3098B4201D3CB01C01A52418309F1
:100348008B4201D38B01C01A524143098B4201D31E
:100358004B01C01A524103098B4201D30B01C01A49
:100368005241C3088B4201D3CB00C01A52418308C3
:100378008B4201D38B00C01A5241D9D243088B4219
:1003880001D34B00C01A5241411A00D201466346BC
:1003980052415B10104601D34042002B00D5494220
:1003A800704763465B1000D3404201B5002000F05F
:1003B80005F802BD0029F8D016E770477047C04617
:1003C8000448054B10B5834203D0044B002B00D0E2
:1003D800984710BD5C0000205C0000200000000071
:1003E80006480749091A8B10C90FC91810B54910D2
:1003F80003D0044B002B00D0984710BD5C000020B0
:100408005C0000200000000010B5074C2378002B8A
:1004180009D1FFF7D5FF054B002B02D0044800E0B7
:1004280000BF0123237010BD5C0000200000000005
:1004380054330008054B10B5002B03D00449054878
:1004480000E000BFFFF7CCFF10BDC0460000000071
:100458006000002054330008F0B58BB005AC1422BE
:100468000021200002F0F8FA194B596B20221143A1
:100478005963596B0A400192019A596B042211433E
:100488005963596B0A400292029A596B022211432E
:100498005963596B0A400392039A5A6B01252A4300
:1004A8005A635B6B2B400493049B8027BF01094E62
:1004B80000223900300001F0C1FD059706950023A0
:1004C800079308932100300001F0FEFC0BB0F0BD4B
:1004D800001002400004005070B5037F012B00D0CB
:1004E80070BD042100F042FC074C206001F010FCB4
:1004F8002168064D2B68C91AFFF7ECFD044B1860FC
:1005080023682B60ECE7C046800000207C000020B8
:100518007800002072B6FEE700B589B00C220021F1
:1005280005A802F099FA1022002101A802F094FA15
:100538001648174B03607F234360002383606322C0
:10054800C2600361836100F05FFD002818D105A92E
:10055800002305938B600D4800F0C0FF002811D1DF
:1005680001A90A230193093B4B6000238B60CB60F0
:100578000648042200F086FE002805D109B000BD17
:10058800FFF7C8FFFFF7C6FFFFF7C4FF20010020F1
:100598000004004010B51748174B0360E1235B02C5
:1005A800436000238360C36003610C22426183615E
:1005B800C36103624362836202F0F8F8002811D134
:1005C8000C48002102F072F900280DD109480021D9
:1005D80002F092F9002809D1064802F047F90028EC
:1005E80006D110BDFFF796FFFFF794FFFFF792FFC4
:1005F800FFF790FF8C0000200038014000B599B04B
:100608000C22002115A802F027FA1C2200210EA8AE
:1006180002F022FA3422002101A802F01DFA27482C
:10062800274B0360002343608360264AC26003614E
:100638004361836100F0B8FC002836D115A9002376
:1006480015934B608B601D4800F048FF00282ED1A1
:100658000EA960230E9300234B608B60CB600B6167
:100668004B618B611548002200F040FD002820D125
:1006780001A9002301934B608B60CB600B61802242
:1006880092014A618B61CB610B62802292044A62BB
:100698008B62CB620B63094800F05CFF00280AD12B
:1006A800064800F05FF919B000BDFFF733FFFFF708
:1006B80031FFFFF72FFFFFF72DFFC0466C01002029
:1006C800002C0140FFFF000010B592B005AC3422A9
:1006D8000021200002F0C0F91022002101A802F038
:1006E800BBF98020800001F0B7FC0123059380232B
:1006F8005B02069302230C9301330D9300230E93A0
:1007080008330F9380239B02109380239B0511933A
:10071800200000F085FF00280ED101A807230193CF
:10072800053B436000238360C360022101F024FA83
:10073800002803D112B010BDFFF7ECFEFFF7EAFE68
:1007480010B501F03FFDFFF7BFFFFFF785FEFFF78C
:10075800E3FEFFF71FFFFFF751FF114800F064F8B1
:10076800FA20C00000F068F80E4C0F49200000F095
:1007780025F8200000F026F80C48042100F0F6FDCA
:1007880001F040FD0100074B180000F025F801F0CA
:1007980039FD074B1A68074900F054F8F0E7C046DE
:1007A8008C0000208400002030750000200100200B
:1007B800780000206C3300080180704710B5FFF7FF
:1007C800FBFF10BD10B5802101228901014801F00D
:1007D80035FC10BD0004005070B504000D004368DE
:1007E800CB1A0288934200D270BD80218901024849
:1007F80001F02AFC6560F7E70004005010B5A0B0CE
:1008080002000B008021684602F01AF96846FFF7DB
:100818004FFC82B2034B18686423694601F0DFFE7F
:1008280020B010BDB8010020024B1860FA229200D7
:100838005A607047B8010020014B58607047C046A5
:10084800B80100200EB410B583B00400094A9368BB
:10085800C31A5268934204D803B010BC08BC03B052
:10086800184706A901910598FFF7C8FF014B9C603E
:10087800F2E7C046B8010020FEE7FEE77047704780
:1008880010B501F0B3FC10BD10B5024800F08CFAA9
:1008980010BDC0462001002082B00A4B196C01220D
:1008A80011431964196C0A400092009ADA6B80218E
:1008B80049050A43DA63DB6B0B400193019B02B0E5
:1008C8007047C0460010024082B00268074B9A4247
:1008D80001D002B07047064B1A6C802109010A4307
:1008E8001A641B6C0B400193019BF2E7002C01403A
:1008F8000010024010B588B004001422002103A89B
:1009080002F0AAF82268144B9A4201D008B010BD30
:10091800124BDA6B02200243DA63DA6B024001926F
:10092800019A596B0422114359635B6B1A40029276
:10093800029B03A98023039348607F3B0B6108480F
:1009480001F0C2FA00220021102001F0FBFB102068
:1009580001F0FCFBDAE7C04600040040001002404A
:100968000008005010B586B004001422002101A828
:1009780002F072F822680D4B9A4201D006B010BD01
:100988000B4A516B012319435163526B1340009377
:10099800009B01A980235B000193FE3B4B600B6128
:1009A800A020C00501F090FAE8E7C046002C0140FD
:1009B8000010024010B58EB004001422002109A8CE
:1009C80002F04AF81C22002102A802F045F8226829
:1009D800174B9A4201D00EB010BD0123029302A812
:1009E80001F0AAF900281FD1124B1A6C8021C90105
:1009F8000A431A641A6C0A400092009A596B04223E
:100A0800114359635B6B1A400192019B09A930237A
:100A180009932E3B4B6000238B60CB6001330B6145
:100A2800054801F051FAD6E7FFF774FDDCE7C04648
:100A380000380140001002400008005030B5056A37
:100A4800036A01229343036242688369194C234075
:100A58000C681C4302239D438B682B43164DA84208
:100A680008D0164DA84205D0154DA84202D0154D04
:100A7800A84206D10825AB431D00CB682B430425AB
:100A8800AB430D4DA84208D00C4DA84205D00C4DE3
:100A9800A84202D00B4DA84205D10B4D2A404D6902
:100AA80015438A692A43426084614A684263036243
:100AB80030BDC0468CFFFEFF002C014000400140C5
:100AC8000044014000480140FFFCFFFF30B5046AC4
:100AD800036A184A134003624268C369164D2B40E3
:100AE8000D681D43154B1C408B681B022343144C97
:100AF800A04209D0134CA0420DD0134CA0420AD0FA
:100B0800124CA0420FD106E0114C1C40CB681B02CE
:100B18002343104C2340104C22404C6924011443B9
:100B28008A69120122434260C5614A68C26303624E
:100B380030BDC046FFFEFFFF8CFFFEFFFFFDFFFF3D
:100B4800002C0140004001400044014000480140A1
:100B5800FFF7FFFFFFFBFFFFFFCFFFFF30B5046A82
:100B6800036A134A134003624368C269114D2A405D
:100B78000D682D021543104A14408A681203224357
:100B88000E4CA04208D00E4CA04205D00D4CA042FD
:100B980002D00D4CA04204D10C4C1C404B699B0167
:100BA80023434360C5614B680364026230BDC0469D
:100BB800FFEFFFFFFF8CFFFEFFDFFFFF002C014070
:100BC800004001400044014000480140FFBFFFFFD2
:100BD80030B5046A036A124A134003624368426DDF
:100BE800104D2A400D6815430F4A14408A681204B4
:100BF80022430E4CA04208D00D4CA04205D00D4C0B
:100C0800A04202D00C4CA04204D1054C1C404B69B8
:100C18001B022343436045654B688365026230BD10
:100C2800FFFFFEFF8FFFFEFFFFFFFDFF002C0140CF
:100C380000400140004401400048014030B5046ACA
:100C4800036A134A134003624368426D114D2A40F8
:100C58000D682D021543104A14408A681205224374
:100C68000E4CA04208D00E4CA04205D00D4CA0421C
:100C780002D00D4CA04204D10C4C1C404B699B0285
:100C88002343436045654B68C365026230BDC04677
:100C9800FFFFEFFFFF8FFFFEFFFFDFFF002C01408C
:100CA800004001400044014000480140FFFFFBFFB5
:100CB80070B5046A056A1026B54305628569084E51
:100CC800354012022A43074D2A401B071B0C1343C9
:100CD800A022944309010A4022438361026270BD45
:100CE800FFFCFFFFFF0FFFFF70B5056A046A0C4E9B
:100CF80034400462C4690536FF36B4431443F02215
:100D080094431A01FF2313402343064A154009025E
:100D1800A022120111402943C361016270BDC0467F
:100D2800FFFEFFFFFFF5FFFF70B5046A056A0B4E73
:100D380035400562C5690A4E354012022A43094DFD
:100D48002A401B071B0C1343074A14400903A0221F
:100D5800120211402143C361016270BDFFEFFFFF22
:100D6800FFFCFFFFFF0FFFFFFF5FFFFF082913D006
:100D780008D800290DD0042902D10368986B0AE02D
:100D8800002008E00C2902D10368186C03E0002059
:100D980001E00368586B70470368D86BFBE770473E
:100DA800704770477047000070B505000368DE683B
:100DB8001C69A2070ED5B2070CD5032252421A614C
:100DC8000123037703689B699B0757D0FFF784FBD0
:100DD80000232B77630712D5730710D52B680522DC
:100DE80052421A6102232B772B689A69C0239B0011
:100DF8001A4249D02800FFF76FFB00232B772307FF
:100E080010D533070ED52B68092252421A610423E4
:100E18002B772B68DB699B073DD02800FFF75CFB2D
:100E280000232B77E30612D5F30610D52B68112281
:100E380052421A6108232B772B68DA69C0239B007A
:100E48001A422FD02800FFF747FB00232B77E30730
:100E580001D5F3072DD482239B011C4201D0330610
:100E68002FD4E30501D5330632D4630601D57306C2
:100E780035D4A40601D5B60639D470BDFFF790FF66
:100E88002800FFF78EFFA3E72800FFF789FF280057
:100E9800FFF787FFB1E72800FFF782FF2800FFF779
:100EA80080FFBDE72800FFF77BFF2800FFF779FFE9
:100EB800CBE72B68022252421A612800FFF76FFF26
:100EC800C9E72B680E4A1A61280000F0A6FBC8E79C
:100ED8002B680C4A1A61280000F0A0FBC5E72B68B4
:100EE800412252421A612800FFF75CFFC1E72B68D4
:100EF800212252421A61280000F08EFBBDE7C0464D
:100F08007FDFFFFFFFFEFFFF0368204A904202D009
:100F18001F4A904203D1702293434A6813431B4AE5
:100F280090420ED01A4A90420BD01A4A904208D0EA
:100F3800194A904205D0194A904202D0184A904264
:100F480003D1184A1A40CB681343802293434A6955
:100F5800134303608B68C3620B6883620B4B984230
:100F680008D00D4B984205D00C4B984202D00C4B40
:100F7800984201D10B69036301234361026913425B
:100F880003D003690122934303617047002C014099
:100F9800000400400020004000400140004401409F
:100FA80000480140FFFCFFFF70B5041E2AD03D2316
:100FB800C35C002B20D03D2502236355210001C9C5
:100FC800FFF7A2FF01234822A3540A3AA35401328F
:100FD800A3540132A3540132A3540132A354013261
:100FE800A3540132A3540132A3540132A354013251
:100FF800A3546355002070BD3C330022C254FFF750
:1010080063FCD8E70120F6E770B5041E2AD03D231B
:10101800C35C002B20D03D2502236355210001C964
:10102800FFF772FF01234822A3540A3AA35401325E
:10103800A3540132A3540132A3540132A354013200
:10104800A3540132A3540132A3540132A3540132F0
:10105800A3546355002070BD3C330022C254FFF7EF
:1010680049FCD8E70120F6E770B5026A036A102444
:10107800A343036244688369164D2B400D682D0213
:101088001D4320239A438B681B011343124A904245
:1010980009D0124A90420ED0114A90420BD0114A00
:1010A800904210D107E0802293431E00CB681B01B9
:1010B8003343403A93430C4A14404A69920022430E
:1010C8008C69A4001443446085614A6882630362A2
:1010D80070BDC046FF8CFFFE002C0140004001405F
:1010E8000044014000480140FFF3FFFF70B50400D1
:1010F8000D003C23C35C012B00D192E03C2301216D
:10110800C154142A00D987E09200474B9B589F4648
:1011180000682900FFF792FC2268936908210B43B5
:1011280093612268936904398B43936122689369B8
:1011380029690B43936100206FE000682900FFF7DD
:1011480093FF2268916980231B010B4393612268F6
:10115800936936490B40936121688B692A691202A9
:1011680013438B61002058E000682900FFF7AEFCAC
:101178002268D36908210B43D3612268D3690439F3
:101188008B43D3612268D36929690B43D36100205B
:1011980043E000682900FFF7E1FC2268D169802359
:1011A8001B010B43D3612268D36920490B40D361EB
:1011B8002168CB692A6912021343CB6100202CE015
:1011C80000682900FFF704FD2268536D08210B43CE
:1011D80053652268536D04398B4353652268536DF8
:1011E80029690B435365002017E000682900FFF7C1
:1011F80025FD2268516D80231B010B43536522682E
:10120800536D0A490B40536521684B6D2A691202D8
:1012180013434B65002000E001203C230022E254E8
:1012280070BD0220FCE7C04680330008FFFBFFFFCB
:1012380070B51600046A026A0125AA43026282692F
:101248000D4DA84208D00D4DA84205D00C4DA8421E
:1012580002D001252A4302E00325AA433243F025A0
:10126800AA431D01FF232B4013430A2294430A403B
:1012780022438361026270BD002C014000040040DB
:101288000040014070B504000D003C23C35C012BF5
:1012980059D03C230121C154002A0AD0042A1AD06B
:1012A800082A2BD00C2A3BD001203C230022E254F0
:1012B80070BD29686A68EB680068FFF7B9FF2268A3
:1012C80093690C218B43936122689369A9680B4346
:1012D80093610020E9E729686A68EB680068FFF70E
:1012E800E7FC2268936919490B40936121688B696F
:1012F800AA68120213438B610020D6E729686A683E
:10130800EB680068FFF7F0FC2268D3690C218B4377
:10131800D3612268D369A9680B43D3610020C4E76D
:1013280029686A68EB680068FFF7FEFC2268D369E1
:1013380006490B40D3612168CB69AA68120213439E
:10134800CB610020B1E70220B2E7C046FFF3FFFF00
:1013580010B51F23194001248C40036AA34303627C
:10136800036A8A401343036210BD000010B50400ED
:1013780010291AD88B00534AD3589F463E23C05C85
:10138800C0B20633E35CDBB219E03F23C05CC0B2F5
:101398000EE04023C05CC0B20AE04123C05CC0B28A
:1013A80006E04223C05CC0B202E04323E05CC0B266
:1013B80004290ED0082910D04723E35CDBB20128AA
:1013C8007AD1012B79D1102926D88A003E48825833
:1013D80097464523E35CDBB2F1E74623E35CDBB2E7
:1013E800EDE702233E22A3540632A3542268D368B1
:1013F80002200343D3602AE03F220220A0540EE0DB
:1014080040220220A0540AE041220220A05406E013
:1014180042220220A05402E043220220A0540429C0
:101428000DD0082927D047220220A054082925D00A
:101438002AD80029DAD0042904D018003DE0452331
:101448000222E2542268D36804200343D360206850
:101458000122FFF77DFF22681C4B9A421ED01C4BCD
:101468009A421BD01B4B9A4218D0136801210B4398
:101478001360002021E046230222E2542268D36848
:1014880008200343D360E2E70C2905D12268D3681A
:1014980010200343D360DAE718000EE093680E4982
:1014A8000B40062B0AD007398B4209D0136801215B
:1014B8000B431360002000E0012010BD0020FCE772
:1014C8000020FAE7D433000818340008002C014043
:1014D80000040040004001400700010030B53C23F3
:1014E800C35C012B2CD03C230122C25401330132AE
:1014F800C254026853689568124CA2421BD07024EB
:10150800A3430C682343536003680E4A934205D0F3
:101518000D4A934202D00D4A934204D1802295434A
:101528008A682A439A603D230122C254013B002263
:10153800C254002030BD064C23404C682343DEE7EC
:101548000220F7E7002C0140000400400040014061
:10155800FFFF0FFF10B53C23C35C012B40D03C2399
:101568000122C254CB681F4A13408A6813431E4A9B
:1015780013404A6813431D4A13400A6813431C4A20
:1015880013400A6913431B4A13404A6913431A4A12
:1015980013400A6B1343194A13408A691204134310
:1015A800174A1340CA6913430268164CA24205D071
:1015B80053643C230022C254002010BD124C234027
:1015C8008C6A24052343114C23400C6A2343104C96
:1015D80023404C6A23430F4C2340C96A0B43E7E777
:1015E8000220EAE7FFFCFFFFFFFBFFFFFFF7FFFF1B
:1015F800FFEFFFFFFFDFFFFFFFBFFFFFFFFFF0FF72
:10160800FFFFFFEF002C0140FFFF0FFFFFFFFFFE72
:10161800FFFFFFFDFFFFFFDF7047704770470000C7
:1016280070B582B0041E00D129E20368DB0739D502
:10163800C14A916838230B40D16803220A40102B15
:1016480026D0082B26D063688022520293427FD08E
:10165800A022D202934200D181E0B74B1A68B74961
:101668000A401A601A68B6490A401A606368002B73
:1016780000D180E000F0C6FD0500AF4B1B689B035E
:1016880010D400F0BFFD401B6428F6D90320F7E111
:10169800032AD6D1A84B1B689B0303D56368002B8C
:1016A80000D1EFE123689B0731D5A34A916838231D
:1016B8000B40D16803220A40102B6AD0002B6BD153
:1016C8009D4A1268520503D5E268002A00D1DBE181
:1016D800994842689B490A40616909020A43426085
:1016E800002B0DD1036898490B4021690B43036017
:1016F8000368DB0A07221A40944BD340944A1360CC
:10170800944B186800F032FD002800D0BEE1236831
:101718001B0700D481E0884B9A6838231340182BA4
:1017280073D0A369002B00D1B4E0834A136E012162
:101738000B43136600F066FD05007F4B1B6E9B078D
:101748006BD400F05FFD401B0228F6D9032097E117
:10175800794A116880235B020B43136086E7764B56
:1017680019688022D2020A431A601968802252023C
:101778000A431A607AE700F045FD05006E4B1B68C6
:101788009B038FD500F03EFD401B6428F6D903204B
:1017980076E1022A92D193E7E368002B22D0664AC9
:1017A800136869490B4021690B4313601168802352
:1017B8005B000B43136000F025FD05005E4B1B68C2
:1017C8005B0506D400F01EFD401B0228F6D9032055
:1017D80056E159494B685B4A134062691202134348
:1017E8004B6094E7544A13685B490B40136000F060
:1017F80009FD0500504B1B685B0588D500F002FD0C
:10180800401B0228F6D903203AE14B4B1B6E9B077D
:1018180003D5A369002B00D13AE123685B0700D404
:10182800A2E0454B9A6838231340202B45D0424B01
:10183800DB6BDB004AD4404BDA6B802149050A4355
:10184800DA63DB6B0B400193019B0125434B1B685B
:10185800DB053DD5A368012B4ED0052B52D0364B66
:10186800DA6D01218A43DA65DA6D03318A43DA6574
:10187800A368002B50D000F0C5FC06002E4BDB6D92
:101888009B076FD400F0BEFC801B354B9842F5D9FE
:101898000320F5E0284A136E01218B43136600F0FC
:1018A800B1FC0500244B1B6E9B07B6D500F0AAFCC3
:1018B800401B0228F6D90320E2E01F4BDB6D9B0793
:1018C80052D5A368002B4FD10120D9E00025BDE7F0
:1018D800224A116880235B000B43136000F092FCDE
:1018E80006001E4B1B68DB05B4D400F08BFC801B84
:1018F8000228F6D90320C3E00F4AD36D01210B4318
:10190800D365B5E70C4BDA6D04210A43DA65DA6D65
:1019180003390A43DA65ABE700F074FC0600064BAE
:10192800DB6D9B071ED500F06DFC801B0C4B9842AD
:10193800F5D90320A4E0C04600100240FFFFFEFFD7
:10194800FFFFFBFFFF80FFFFFFC7FFFF0024F4003E
:101958000800002004000020FFFEFFFF0070004088
:1019680088130000012D1ED0E369002B00D191E0FF
:101978004F4A916838220A40102A5ED0022B18D0AC
:101988004B4A13684B490B40136000F03BFC0400C2
:10199800474B1B689B0149D500F034FC001B02280B
:1019A800F6D903206CE0424AD36B43490B40D3631A
:1019B800DAE73F4A13683F490B40136000F022FC06
:1019C80005003B4B1B689B0106D500F01BFC401B28
:1019D8000228F6D9032053E0354AD368374919401D
:1019E800236A606A0343A06A00020343E06A034370
:1019F800206B03430B43D360116880235B040B43C4
:101A08001360D16880235B050B43D36000F0FAFBB9
:101A18000400274B1B689B0106D400F0F3FB001B56
:101A28000228F6D903202BE0002029E0204AD368B9
:101A380023490B40D360002022E0012B2CD01C4B03
:101A4800DA6803231340216A8B4227D1702313409D
:101A5800616A8B4224D1FE21C9011140A36A1B028D
:101A680099421FD1F8239B031340E16A8B421BD193
:101A7800520F5207236B9A4218D1002000E0012030
:101A880002B070BD0120FBE70120F9E70120F7E76C
:101A98000120F5E70020F3E70120F1E70120EFE757
:101AA8000120EDE70120EBE70120E9E70120E7E766
:101AB80000100240FFFFFFFEFFFFFFEF8C80C11FF9
:101AC800FCFFFEEF10B52A4B9B6838221A4207D15B
:101AD800274B1A68D20A072313402648D84010BD5E
:101AE800234B9A6838231340082B3BD0204B9A6825
:101AF80038231340102B0DD01D4B9A683823134000
:101B0800202B31D01A4B9A6838231340182B26D033
:101B18000020E4E7164AD1680D3B0B40D268120951
:101B2800072111400131032B0FD01248FEF7D2FADA
:101B38000F4BDA68120A7F23134058430C4BD968BD
:101B4800490F0131FEF7C6FAC9E70A48FEF7C2FA9B
:101B5800074BDA68120A7F2313405843EEE7FA204E
:101B6800C001BCE70348BAE780200002B7E7C046D7
:101B7800001002400024F40070B504000D00002895
:101B880000D1AAE0574B1A68072313408B4221D390
:101B980023689A070ED55B0705D5534A9168E02359
:101BA800DB010B439360504A936850490B40A1688E
:101BB8000B4393602368DB0754D56368012B20D05F
:101BC800022B3BD0002B3FD1474A126852051CD448
:101BD80001206AE0434A136807218B432B431360B3
:101BE80000F010FB06003F4B1A6807231340AB4276
:101BF800CED000F007FB801B3D4A9042F3D903206A
:101C080053E0394A1268920369D537498A68072030
:101C1800824313438B6000F0F5FA0600324B9B6851
:101C280038221A406368DB009A421BD000F0EAFAB7
:101C3800801B2F4B9842F1D9032036E02A4A1268BC
:101C48009201E2D4012030E0032B05D0264AD26D60
:101C58009207DAD4012028E0234A126E9207D4D4DE
:101C6800012022E01F4B1A6807231340AB421DD8FE
:101C780023685B0706D51C4A93681E490B40E16838
:101C88000B439360FFF71EFF174B9A68120A0F2346
:101C98001340194A9B009A581F231340D840174BEA
:101CA8001860174B186800F061FA70BD0D4A136888
:101CB80007218B432B43136000F0A4FA0600094B5D
:101CC8001A6807231340AB42D2D000F09BFA801B5E
:101CD800074B9842F3D90320E7E70120E5E7012005
:101CE800E3E7C0460020024000100240FFF0FFFF7B
:101CF80088130000FF8FFFFFA434000808000020AD
:101D080004000020014B18687047C04608000020F6
:101D180010B5FFF7F7FF064B9A68120B072313401D
:101D2800044A9B009A581F231340D84010BDC04650
:101D38000010024084340008F0B583B00400036842
:101D48009B0362D5584BDB6BDB001ED4564BDA6B1A
:101D5800802149050A43DA63DB6B0B400193019B41
:101D68000126524A116880235B000B43136000F080
:101D780049FA05004D4B1B68DB0508D400F042FA10
:101D8800401B0228F6D9032502E00026E9E70025D2
:101D9800002D23D1444BD96DC02292000B00134073
:101DA800114212D0A2699A420DD03F4AD36D4049E0
:101DB8000B40D06D802149020143D165D16D3D486A
:101DC8000140D165D365DB0710D4002D06D1364A12
:101DD800D36D37490B40A1690B43D365012E15D14B
:101DE800314AD36B34490B40D3630FE000F00AFA51
:101DF80007002D4BDB6D9B07E7D400F003FAC01BEF
:101E08002E4B9842F5D90325DFE700252368DB0729
:101E180006D5254A536D03218B4361680B435365EF
:101E280023689B0706D5204A536D0C218B43A16874
:101E38000B43536523689B0606D51B4A536D2049FF
:101E48000B40E1680B43536523685B040BD5164AC6
:101E5800536D9B009B0861690B435365626980233E
:101E6800DB059A4211D023681B050BD50E4A536D2A
:101E780014490B4021690B43536522698023DB0118
:101E88009A4209D0280003B0F0BD074AD1688023E0
:101E98005B020B43D360E6E7034AD16880235B0209
:101EA8000B43D360EEE7C0460010024000700040CC
:101EB800FFFCFFFFFFFFFEFFFFFFFFEF881300009F
:101EC800FFCFFFFFFF3FFFFFF0B5002359E0866813
:101ED8005F000324BC40A643CC68BC403443846004
:101EE800446894434E683609012232409A4022439E
:101EF800426056E0DE080836B600375805321A4008
:101F080092000F249440A7430C69944022003A435E
:101F1800325059E0032600E00026A64034003C4336
:101F2800424E1832920094513768EA433E00AE435D
:101F38004C68E40201D53E002E433C4C266067689D
:101F48003E0016404C68A40201D53E002E43374C93
:101F580066608426A7593E0016404C68A40301D544
:101F68003E002E43314C8427E6518026A659324044
:101F78004C68E40301D52A0032432C4D80242A51B1
:101F880001330C682200DA404ED001229A40250025
:101F980015401442F4D04E6803243440013C012C0F
:101FA80095D94C6803222240032A08D0C4685E00F1
:101FB8000322B24094438A68B2402243C2604C680C
:101FC80003222240022A95D004685E0003221700EB
:101FD800B740BC434F683A40B240224302604C6865
:101FE800C02292021442CBD09A0814001834A400DC
:101FF8000E4EA75903241C40E4000F26A640B74301
:10200800A026F605B04287D0094EB04208D0094E46
:10201800B04207D0084EB04200D17BE705267CE7E6
:1020280001267AE7022678E7F0BDC046001802408C
:102038000004005000080050000C0050002A01D095
:10204800816170478162FCE7426913000B401B0401
:1020580091430B438361704710B5104A13681049C8
:102068000B400343136080239B00984201D000205B
:1020780010BD0C4B1B685800C01840000A49FEF7F9
:1020880029F80130054B5B695B0503D5002803D0AF
:102098000138F7E70020EBE70320E9E7007000408C
:1020A800FFF9FFFF0800002040420F0070B500282C
:1020B80011DB8308134DC0339B005C590322104089
:1020C800C000FC3216008640B44389010A408240B1
:1020D80022435A5170BD0F230340083B9B08063327
:1020E8009B00094A944663445C6803221040C00080
:1020F800FC3215008540AC4389010A4082402243E6
:102108005A60E7E700E100E000ED00E001388023D5
:102118005B0498420FD2094A50600948036A1B02BF
:102128001B0AC02109060B4303620023936007338F
:102138001360002070470120FCE7C04610E000E073
:1021480000ED00E010B5FFF7B1FF10BD002805DB7A
:102158001F22024001239340014A13607047C04682
:1021680000E100E010B5FFF7D1FF10BD10B5040085
:10217800114B1978002901D1012010BDFA208000E7
:10218800FDF7A8FF01000D4B1868FDF7A3FFFFF747
:10219800E9FF00280DD1032C01D90120EDE701301A
:1021A800002221004042FFF7CDFF054B1C600020B4
:1021B800E3E70120E1E7C046000000200800002016
:1021C8000400002010B5084A116880235B000B4307
:1021D80013600320FFF7CAFF041E02D00124200069
:1021E80010BDFEF759FBFAE700200240034B1B78AD
:1021F800034A11685B1813607047C046000000204E
:10220800C4010020014B18687047C046C401002073
:1022180030B5EFF31084012282F3108801680B684F
:10222800124D2B400B6084F31088EFF3108182F37A
:102238001088026893680E4C2340936081F31088DD
:10224800C36E012B06D08C232022C2500023C36604
:10225800436730BDEFF3108183F310880268136879
:102268001024A343136081F31088ECE7DFFEFFFF1F
:10227800FEFFFFEF10B5040083680269134342694B
:102288001343C269134301680A686A48024013434A
:102298000B602268536868490B40E1680B43536040
:1022A800A369226A1A4321688B6864480340134370
:1022B8008B602268D36A0F218B43616A0B43D36218
:1022C80023685F4A934218D05E4A934226D05E4AFA
:1022D800934244D05D4A934231D01023E069802272
:1022E800120290423DD0042B00D18FE06DD8002B14
:1022F80072D0022B67D1564872E0564B5A6D0323B1
:102308001340022B1DD005D8002B1CD0012B1CD14B
:102318000333E3E7032B1AD10533DFE74D4B5A6D3F
:102328000C231340082B14D005D8002B13D0042BF2
:10233800D4D01023D2E70C2B0FD1043BCEE70023D7
:10234800CCE70223CAE70023C8E71023C6E7102317
:10235800C4E70223C2E70023C0E71023BEE7002337
:10236800BCE7042B2CD007D8002B09D0022B01D1B5
:10237800374809E0012053E0082B05D001204FE041
:10238800FFF7C6FC002844D0626A334B5200D15A8A
:10239800FDF7A0FE400061684B08C018FDF79AFEE3
:1023A8000200103A2D4B9A4235D882B20F239A4335
:1023B8004008083B034013432268D36000202FE005
:1023C800FFF780FBDEE701202AE0082B02D18020FE
:1023D800000205E0012023E0FFF79AFC00281CD04A
:1023E800626A1D4B5200D15AFDF774FE61684B08B2
:1023F800C018FDF76FFE0200103A184B9A420ED82B
:1024080023680004000CD860002009E0FFF75AFB9D
:10241800E4E7002004E0012002E0002000E00120C1
:1024280001236A22A352023AA35200236367A367D7
:1024380010BDC046F369FFCFFFCFFFFFFFF4FF11C8
:10244800003801400044004000480040004C004073
:102458000024F400001002405C340008EFFF000084
:10246800836A1B0706D5026853682C490B40816BA9
:102478000B435360836ADB0706D502685368284913
:102488000B40C16A0B435360836A9B0706D50268F9
:10249800536824490B40016B0B435360836A5B0705
:1024A80006D50268536820490B40416B0B435360C3
:1024B800836ADB0606D5026893681C490B40C16B2A
:1024C8000B439360836A9B0606D502689368184994
:1024D8000B40016C0B439360836A5B060BD5026863
:1024E800536814490B40416C0B435360426C802382
:1024F8005B039A420AD0836A1B0606D502685368B2
:102508000D490B40C16C0B43536070470268536818
:102518000A490B40816C0B435360ECE7FF7FFFFFD8
:10252800FFFFFDFFFFFFFEFFFFFFFBFFFFEFFFFFCA
:10253800FFDFFFFFFFFFEFFFFFFFF7FFFFFF9FFF3B
:10254800F8B5CE46474680B506000D0017009946F7
:10255800089B98463368DC692C40641B63425C41E5
:10256800BC4233D143460133F4D0FFF74BFE4B4610
:10257800C01A40452FD84346002B2ED03268136826
:102588005B07E7D5802DE5D0402DE3D0D3691B0745
:1025980010D4D3691B05DDD580231B0113623000DD
:1025A800FFF736FE90232022F2500C3B0022F25413
:1025B80003200CE0082414623000FFF729FE902362
:1025C800F4500C3B0022F254012000E00020C0BC73
:1025D800B946B046F8BD0320F9E70320F7E7F0B5A0
:1025E800C64600B582B004000D0090461E00882340
:1025F800C358202B65D1002968D0002A68D082688A
:1026080080235B019A4204D10369002B01D1CB07D7
:1026180060D490230022E250083B2132E250FFF7B9
:10262800F1FD070054234246E2520233E252A26807
:1026380080235B019A4202D00023984618E0236960
:10264800002B29D00023984612E088232022E2504C
:10265800032037E043461B882268DB05DB0D9362C5
:1026680002239C46E0445623E25A013A92B2E252CF
:102678005623E35A002B12D000963B0000228021FB
:102688002000FFF75DFF0028DFD1002DE2D02A7877
:1026980023689A620135E6E7A8460025E8E7009630
:1026A8003B00002240212000FFF74AFF002803D109
:1026B80088232022E25005E088232022E2500320CC
:1026C80000E0022002B080BCB846F0BD0120F9E766
:1026D8000120F7E70120F5E730B583B00400902327
:1026E8000022C250FFF78EFD050023681B681B07F8
:1026F80010D423681B685B072BD420238822A3509F
:102708000432A3500023E3662367083AA354002049
:1027180003B030BD8021234B0093030000228903BE
:102728002000FFF70DFF0028E3D0EFF3108101230D
:1027380083F310882268136880208343136081F331
:10274800108888232022E250043B0022E2547D387E
:10275800DEE78021134B00932B000022C9032000E1
:10276800FFF7EEFE0028C8D0EFF31080012282F3B5
:10277800108821680B680C4D2B400B6080F3108883
:10278800EFF3108082F3108821688B6893438B6085
:1027980080F310888C231F32E250083B0022E25459
:1027A8000320B5E7FFFFFF01DFFEFFFF10B5041EA2
:1027B80030D08823C358002B22D088232422E2500B
:1027C8002268136801218B431360A36A002B1DD173
:1027D8002000FFF74FFD012811D0226853680E49E9
:1027E8000B405360226893682A218B4393602268C8
:1027F800136829390B4313602000FFF76DFF10BDE4
:1028080084330022C254FEF7D5F8D6E72000FFF73C
:1028180027FEDDE70120F2E7FFB7FFFFF8B5040068
:10282800436E002B05D101336A228352023A835248
:10283800F8BD026895686D0E07231D409268520F17
:102848001340084FF85CC000074EF15CFDF7CCFC64
:102858006A23E052785DC000715DFDF7C5FC68230E
:10286800E052E5E77C3400087434000870B584232E
:10287800C35C012B15D08424012606558825242302
:102888004351026813681168B1431160064A134046
:102898000022426601680B60202343510255002044
:1028A80070BD0220FCE7C046FFFFFFDFF8B504005B
:1028B8000A008423C35C012B1BD0842501206055AA
:1028C80088262423A35123681F6819688143196047
:1028D80020688368DB00D908114381602000FFF776
:1028E8009DFF23681F602023A35100236355002008
:1028F800F8BD0220FCE70000F8B504000B008422B4
:10290800825C012A1BD08425012060558826242258
:10291800A251226817681168814311602268916882
:1029280008480140194391602000FFF777FF2368AA
:102938001F602023A351002363550020F8BD022007
:10294800FCE7C046FFFFFFF17047000010B5030029
:102958000C4A0D49521A0D490968002907D00B493C
:102968000868C318934206D8084A136010BD07497F
:1029780007480860F3E700F077F80C2303600120AC
:102988004042F3E70090002000040000C801002046
:10299800180300200D488546FFF7D6FF0C480D495F
:1029A8000D4A002302E0D458C4500433C4188C42A2
:1029B800F9D30A4A0A4C002301E013600432A24208
:1029C800FBD300F057F8FDF7BBFEFEE700900020B0
:1029D800000000205C000020203500085C0000207A
:1029E80014030020FEE770B50600140008001A0062
:1029F8009AB0002C05DA8B230120336040421AB0CC
:102A080070BD8223694600259B008B811995009033
:102A18000490AC4200D0651E01235B42CB8130009C
:102A28001E9B8D604D6100F0ABF9431C01DA8B23CE
:102A38003360002CE3D00022009B1A70DFE700000F
:102A480013B5044C009313000A0001002068FFF737
:102A5800CAFF16BD0C00002003008218934200D163
:102A6800704719700133F9E7014B18687047C04681
:102A78000C00002070B500260C4C0D4D641BA410F2
:102A8800A64209D1002600F061FC0A4C0A4D641BDD
:102A9800A410A64205D170BDB300EB589847013683
:102AA800EEE7B300EB5898470136F2E7183500080F
:102AB800183500081C35000818350008704770479D
:102AC80070B505000C1E10D0043C2368002B00DAFA
:102AD800E418280000F0E0F81D4A1368002B05D11F
:102AE80063601460280000F0DFF870BDA34208D9C5
:102AF800206821188B42F3D119685B680918216096
:102B0800EEE71A005B68002B01D0A342F9D91168DF
:102B18005018A0420BD12068091850181160834240
:102B2800E0D118685B68411811605360DAE7A04289
:102B380002D90C232B60D5E7206821188B4203D1DA
:102B480019685B680918216063605460CAE7C04669
:102B58001003002070B50F4E0D00316804000029E5
:102B680002D100F095FB30602900200000F090FBB6
:102B7800431C03D101256D42280070BD0323C51CE9
:102B88009D43A842F8D0291A200000F081FB0130AB
:102B9800F2D1EFE70C030020F7B50322CB1C9343D7
:102BA800083305001F000C2B34D20C27B94233D848
:102BB800280000F071F8374E33681C00002C2FD124
:102BC80039002800FFF7C6FF0400431C5FD13468B2
:102BD8000094009B002B4AD1002C52D02368280077
:102BE800E3180099019300F053FB019B834248D1FD
:102BF80023682800FF1A3900FFF7ACFF013040D0E6
:102C08002368DB19236033685A68002A33D1009B94
:102C1800336019E0002BC9DA0C232B600020FEBDBD
:102C28002168C91B20D40B290AD9E2192760A342BD
:102C380004D1326063681160536005E05A60F9E7B7
:102C48006268A3420ED13260280000F02DF82000FF
:102C580007220B30231D9043C21A9842DFD01B1A5B
:102C6800A350DCE75A60EFE723006468A6E7009CFE
:102C780063680093ADE71A005B68A342FBD10023A9
:102C8800DAE70C2328002B6000F00EF8C6E707608F
:102C9800DAE7C0461003002010B50248FFF70EFF20
:102CA80010BDC0460803002010B50248FFF707FF13
:102CB80010BDC04608030020F0B58E6885B01F001F
:102CC8000C00330002900392BE4254D80C22885E56
:102CD8009022D20010422CD00322096923685B1A83
:102CE800019363695343019ADD0FED187B1C6D1046
:102CF8009B182A00AB4201D91D001A00400527D5B0
:102D080011000298FFF748FF061E2AD0019A216990
:102D180000F0DBFAA289194B1A4080231343A381E0
:102D2800019B2661F618266065613E00ED1A3B009E
:102D3800A5601F003A000399206800F097FA002068
:102D4800A3689B1BA3602368DB19236005B0F0BD53
:102D5800029800F0C3FA061EE2D121690298FFF733
:102D6800AFFE0C230120029A40421360A28934333B
:102D78001343A381EAE73E00DCE7C0467FFBFFFF81
:102D8800F0B59FB002901D008B890F0016001B063E
:102D980012D50B69002B0FD14021FFF7FDFE3860DB
:102DA8003861002806D10C23029A136001204042A2
:102DB8001FB0F0BD40237B61002306AC6361203364
:102DC80063761033A376059535002B78002B01D058
:102DD800252B48D1AB1B0393B5420BD032003900E9
:102DE8000298FFF769FF013000D1AAE06369039AEE
:102DF8009B1863612B78002B00D1A2E0012253219C
:102E080000235242626002AA52186E1C2360E360DB
:102E1800A3601370A365524B052218003178039301
:102E280000F048FA751C226800281ED1D30604D584
:102E3800202302A9533009180B70130704D5532017
:102E48002B2302A909180B7033782A2B15D03500CB
:102E580000210A20E3682A786E1C303A092A4ED9E4
:102E6800002910D116E00135AFE7039B2E00C01AE8
:102E78000123834013432360CDE7059B191D1B687D
:102E88000591002B01DBE36004E05B42E360022371
:102E9800134323602B782E2B0CD16B782A2B33D13C
:102EA800059B02351A1D1B680592002B01DA0123C8
:102EB8005B4263602B4E03223000297800F0FAF958
:102EC800002806D04023801B834022680135134325
:102ED80023602978062224486E1C217600F0EAF93E
:102EE800002834D02148002821D10722059B073328
:102EF80093430833059363691B18636164E743438D
:102F0800350001219B18A6E700230A201900013586
:102F180063602A786E1C303A092A03D9002BC9D07D
:102F28006160C7E74143350001238918F1E705AA25
:102F3800009221003A000E4B029800E000BF431CAB
:102F4800D9D1BB895B0600D530E7606930E705AAAF
:102F5800009221003A00064B029800F07BF8EEE759
:102F6800E4340008EA340008EE34000800000000E9
:102F7800C12C0008F7B5160001938A680B690C008C
:102F88000090934200DA1300220033604332127833
:102F9800002A01D00133336023689B0602D53368C9
:102FA800023333602268062315001D401A4227D0D9
:102FB800230043331B785A1E93412268920630D46B
:102FC800220001990098089D4332A847013025D076
:102FD8000622236800251340042B05D13368E568D1
:102FE800ED1AEB43DB171D40A3682269934201DD0C
:102FF8009B1AED180026B54220D1002010E00135BB
:10300800E36832689B1AAB42D2DD220001230199A2
:103018000098089F1932B8470130F0D1012040428A
:10302800FEBD3020E1184331087021005A1C45319B
:103038000978A218433202331170C1E72200012334
:1030480001990098089F1A32B8470130E6D0013636
:10305800D1E70000F0B58BB006920A00433207931F
:10306800059003920A7E0C00109B782A09D8622AE0
:103078000BD8002A00D1BBE07A490491582A00D124
:103088008FE0250042352A7022E0100063381528A9
:10309800F7D8FDF715F816001F00F6FFF6FFF6FF44
:1030A800F6FF1F00F6FFF6FFF6FFF6FFA00036005A
:1030B8007F00F6FFF6FFB100F6FF3600F6FFF6FFD9
:1030C800830025001A684235111D196013682B709A
:1030D80001239FE018680968021D0D060BD50668D4
:1030E8001A60002E03DA2D23039A764213705D4B83
:1030F8000A27049319E006681A604906F1D536B222
:10310800EFE71A68096840CA080602D4490600D5DC
:10311800B6B21A60237E534A0A2704926F2B00D155
:10312800023F2300002243331A706368A360002B18
:1031380006DB04212268039D8A43226033430CD0B6
:10314800039D30003900FDF74BF8049B013D5B5CA3
:103158002B70330006009F42F3D9082F09D123684A
:10316800DB0706D5626823699A4202DC3023013DF9
:103178002B70039B5B1B2361079B21000093059821
:10318800069B09AAFFF7F6FE013048D1012040420C
:103198000BB0F0BD202209680A4322607822324928
:1031A8000491210045310A701968226840C9100647
:1031B80002D4500600D5B6B21960D30702D5202331
:1031C80013432360002E01D01027AAE7202223688A
:1031D80093432360F8E71A680D68101D4969186061
:1031E80013682E0601D5196002E06D06FBD519801B
:1031F8000023039D2361BFE71A68111D1960156834
:1032080000212800626800F055F8002801D0401B12
:103218006060636823610023039A1370ACE72A0097
:10322800236906990598079DA8470130AED0236801
:103238009B0715D4099BE0689842A9DA1800A7E70C
:103248002200012306990598079E1932B0470130DC
:103258009CD00135E368099A9B1AAB42F0DCE9E798
:103268000025F7E7F53400080635000810B5884250
:1032780002D98B18984208D300239A4207D0CC5C15
:10328800C4540133F9E78B5C8354013AFBD210BD77
:10329800002370B5064D040008002B60FFF756FBAD
:1032A800431C03D12B68002B00D0236070BDC0469F
:1032B80004030020C9B28218904201D1002070474F
:1032C80003788B42FBD00130F6E7002310B59A4211
:1032D80000D110BDCC5CC4540133F8E7F7B5060043
:1032E8000C001500002905D11100FFF755FC04005A
:1032F8002000FEBD002A03D1FFF7E2FB2C00F7E710
:1033080000F01CF80700854202D84308AB42EFD30F
:1033180029003000FFF740FC0190002801D1019CF2
:10332800E6E72A00BD4200D93A0021000198FFF7DC
:10333800CCFF21003000FFF7C3FBF0E70B1F1B6831
:10334800181F002B01DA0B58C0187047F8B5C04693
:10335800F8BC08BC9E467047F8B5C046F8BC08BC27
:043368009E467047C6
:10336C004672657175656E637920697320256420DA
:10337C000A00000018110008201200082012000892
:10338C002012000842110008201200082012000828
:10339C0020120008701100082012000820120008EA
:1033AC00201200089A1100082012000820120008B0
:1033BC0020120008C8110008201200082012000872
:1033CC0020120008F211000884130008B213000840
:1033DC00B2130008B213000892130008B2130008CD
:1033EC00B2130008B21300089A130008B2130008B5
:1033FC00B2130008B2130008A2130008B21300089D
:10340C00B2130008B2130008AA130008EA1300084C
:10341C0020140008201400082014000800140008D0
:10342C0020140008201400082014000808140008B8
:10343C0020140008201400082014000810140008A0
:10344C002014000820140008201400081814000888
:10345C00010002000400060008000A000C00100025
:10346C002000400080000001080402040801010152
:10347C000101010307010000000000000000000032
:10348C00000000000000000001000000020000002D
:10349C000300000004000000000000000000000019
:1034AC000000000000000000000000000000000010
:1034BC0000000000000000000100000002000000FD
:1034CC0003000000040000000600000007000000DC
:1034DC000800000009000000232D302B2000686C30
:1034EC004C0065666745464700303132333435361B
:1034FC003738394142434445460030313233343554
:0C350C0036373839616263646566000080
:043518003D04000866
:04351C00110400088E
:1035200001000000040000000024F400100000204E
:1035300000000000CC010020340200209C0200208A
:10354000000000000000000000000000000000007B
:10355000000000000000000000000000000000006B
:10356000000000000000000000000000000000005B
:0C3570000000000000000000000000004F
:040000050800299D29
:00000001FF
